:0420000043EF10F0AA
:102006000D605F82F2A40AEF10F00CEF10F041EFC2
:1020160010F0F2940001CF2B070ECF6515EF10F0EC
:1020260017EF10F041EF10F0010E01015827000ED6
:1020360059235A235B23010E0001C527000EC62330
:10204600C723C823010E01015027000E5123522336
:102056005323010E5C27000E5D235E235F23010ED2
:102066006427000E652366236723010E6027000E92
:10207600612362236323000E0001CF6F5F9211007C
:1020860047EF5CF0000000803F000020410000C8E0
:102096004200007A4400401C460050C347002474A6
:1020A600498096184B20BCBE4C286B6E4EF9021523
:1020B60050EC78AD60CAF249710000803FCDCCCCBF
:1020C6003D0AD7233C6F12833A17B7D138ACC527E0
:1020D60037BD37863595BFD63377CC2B325F7089BF
:1020E60030FFE6DB2E08E53C1E6042A20D6323D1DD
:1020F60022C3048E22014154435A0000000000000E
:1021060000000541544344000000000000000006A2
:1021160041544351000000000000000007415443B1
:1021260048000000000000000008415443555600D6
:1021360000000000000002415443564552000000D2
:1021460000000009415443534E52000000000000B5
:10215600034154435253540000000000010441540B
:1021660043424C525354000000010C4154434D4F1E
:1021760044454C0000000011415443534D4F444523
:102186004C000001134154434600000000000000CB
:1021960001124154434300000000000000011441B5
:1021A600544343414C000000000001154154434391
:1021B6005A52000000000001164154434353500098
:1021C6000000000002174154434F46462500000018
:1021D6000002184154434D4F4445000000000219C7
:1021E60041544354434D5000000000021A415443E9
:1021F60057494E0000000000021B4154434B4D4618
:10220600454D000000021C4154434B4D46454500D8
:10221600000002204154434558544D00000000027E
:102226001F415443555345440000000002214154C8
:1022360043424C44544D0000000010415441435366
:10224600530000000000011D41544143454E00006B
:10225600000000020F415441435A5352000000004F
:10226600001E415441435A520000000000020D4135
:10227600544143534C5000000000000E415441436A
:102286005A5346000000000009024300020100C044
:1022960032090400000102020100052400100104B5
:1022A6002402020524060001052401000107058118
:1022B6000308000209040100020A000000070502E3
:1022C6000240000007058202400000340344006516
:1022D600006B00690073007400200043006F002E3D
:1022E600002C0020004C00740064002E000000004A
:1022F60000000000000000000000000000000001D7
:102306000000000A00000064000000E8030000105E
:10231600270000A086010040420F0080969800002A
:10232600E1F50500CA9A3B00000000C4FF7F3F802C
:10233600EFFFBE90E1A93EEC8276BE82AD2B3E0E4B
:102346003CC3BD87D1133D4178D3BB1201000202C5
:10235600000008D8040A0000010102000104030974
:10236600042D2D2D2D2C2D2D2D2D2C2D2D2D2D2CC3
:102376002D2D2D2D2C2D2D2D2D2C2D2D2D2D00558E
:102386004135332D4F335F36763100446563203057
:10239600372032303232004154414353530D0A0044
:0F23A60031373A31323A343700252E3266000093
:1023B6009AC0D9FF9BC0DAFFDF5000019C6F9D6B6E
:1023C600FF0E9C25FF0E9D21800BD8A4EDEF11F08A
:1023D600EFEF11F0FDEF11F09AC0D9FF9BC0DAFFC5
:1023E600DF509C6FFF0E9C259F6FA06BFF0EA023F6
:1023F60001EF12F0000EA06F000E9F6F9FC09EF0BF
:10240600770E016E020E026E040E9A25036E000E02
:102416009B21046E76EC5DF001500001B06F770EE3
:10242600B025D96EDA6A020EDA22200EDF6EB02BE4
:1024360020EE03F09A51D9269B51DA22100EDF6462
:1024460027EF12F029EF12F0A9EF17F020EE03F0B4
:102456009A51D9269B51DA22210EDF6035EF12F010
:1024660037EF12F0A9EF17F0910E116E010E126EF2
:10247600D7EC69F0A9EF17F0770EB025D96EDA6AB6
:10248600020EDA224F0EDF6EB02B770EB025D96E14
:10249600DA6A020EDA224B0EDF6EB02B27EF18F047
:1024A600770EB025016E026A020E0222850E036EB9
:1024B600230E046E76EC5DF001500001B02727EF85
:1024C60018F0000EAF6FAF51040D1C0EF324D96E39
:1024D600010EF420DA6EDECF94F0DECF95F0DECF7B
:1024E60096F0DECF97F0770EB025986F996B020EB7
:1024F600992326EC66F000019451B027AF05D8B4B5
:1025060087EF12F089EF12F092EF12F0770EB025F6
:10251600D96EDA6A020EDA222C0EDF6EB02BAF2BE2
:10252600010EAF6599EF12F09BEF12F066EF12F015
:1025360027EF18F02CC194F02DC195F02EC196F01E
:102546002FC197F0770EB025986F996B020E9923DD
:1025560026EC66F000019451B02727EF18F0010130
:102566004351D8B4B9EF12F0BBEF12F038EF13F0C5
:1025760099C101F09AC102F09BC103F09CC104F01D
:10258600000E056E000E066E000E076E000E086E3B
:10259600FDEC5AF0D8B0D2EF12F0D4EF12F0DDEF26
:1025A60012F00001C251D8B4DBEF12F0DDEF12F0E9
:1025B600EFEF12F0770E0001B025016E026A020EEF
:1025C6000222800E036E230E046E76EC5DF001503F
:1025D6000001B02702EF13F020C194F021C195F05D
:1025E60022C196F023C197F0770EB025986F996BAC
:1025F600020E992326EC66F000019451B027770E5F
:10260600B025D96EDA6A020EDA222C0EDF6EB02BF6
:1026160030C1A1F031C1A2F032C1A3F033C1A4F0A0
:1026260001019305D8A41AEF13F01CEF13F022EF63
:1026360013F0A10E5C6E000E5D6EEBEC61F0A1C0B6
:1026460094F0A2C095F0A3C096F0A4C097F0770EC0
:102656000001B025986F996B020E992326EC66F05F
:1026660000019451B02727EF18F0770E0001B0252E
:10267600016E026A020E02227B0E036E230E046EA8
:1026860076EC5DF001500001B02727EF18F001014C
:102696004351D8B451EF13F053EF13F0D1EF13F0C9
:1026A60020C194F021C195F022C196F023C197F084
:1026B600770E0001B025986F996B020E992326ECD0
:1026C60066F000019451B027770EB025D96EDA6A0C
:1026D600020EDA222C0EDF6EB02B30C1A5F031C10E
:1026E600A6F032C1A7F033C1A8F001019305D8A422
:1026F6007FEF13F081EF13F087EF13F0A50E5C6EFA
:10270600000E5D6EEBEC61F0A5C094F0A6C095F0EE
:10271600A7C096F0A8C097F0770E0001B025986F75
:10272600996B020E992326EC66F000019451B027AE
:10273600770EB025D96EDA6A020EDA222C0EDF6E1B
:10274600B02B34C194F035C195F036C196F037C13F
:1027560097F0770EB025986F996B020E992326ECA9
:1027660066F000019451B027770EB025D96EDA6A6B
:10277600020EDA222C0EDF6EB02B770EB025016E1C
:10278600026A020E0222800E036E230E046E76EC9F
:102796005DF001500001B02727EF18F0770E000119
:1027A600B025016E026A020E0222710E036E230E1E
:1027B600046E76EC5DF001500001B02727EF18F0AB
:1027C60001014351D8B4EAEF13F0ECEF13F0D6EF62
:1027D60014F01CC194F01DC195F01EC196F01FC1E6
:1027E60097F0770E0001B025986F996B020E99232A
:1027F60026EC66F000019451B027770EB025D96E0D
:10280600DA6A020EDA222C0EDF6EB02B99C101F0C5
:102816009AC102F09BC103F09CC104F0000E056E44
:10282600000E066E000E076E000E086EFDEC5AF0E6
:10283600D8B020EF14F022EF14F02BEF14F00001C3
:10284600C251D8B429EF14F02BEF14F03DEF14F079
:10285600770E0001B025016E026A020E0222800E7A
:10286600036E230E046E76EC5DF001500001B02776
:1028760050EF14F020C194F021C195F022C196F0DA
:1028860023C197F0770EB025986F996B020E9923A6
:1028960026EC66F000019451B027770EB025D96E6C
:1028A600DA6A020EDA222C0EDF6EB02B30C1A9F0E6
:1028B60031C1AAF032C1ABF033C1ACF001019305CE
:1028C600D8A468EF14F06AEF14F070EF14F0A90EB4
:1028D6005C6E000E5D6EEBEC61F0A9C094F0AAC0D0
:1028E60095F0ABC096F0ACC097F0770E0001B0251E
:1028F600986F996B020E992326EC66F000019451AD
:10290600B027770EB025D96EDA6A020EDA222C0EBF
:10291600DF6EB02B95C194F096C195F097C196F0F5
:1029260098C197F0770EB025986F996B020E992390
:1029360026EC66F000019451B027770EB025D96ECB
:10294600DA6A020EDA222C0EDF6EB02B99C194F0F1
:102956009AC195F09BC196F09CC197F0770EB02571
:10296600986F996B020E992326EC66F0000194513C
:10297600B027770EB025D96EDA6A020EDA222C0E4F
:10298600DF6EB02B770EB025016E026A020E0222B0
:10299600800E036E230E046E76EC5DF0015000018E
:1029A600B02727EF18F0770E0001B025016E026AF6
:1029B600020E0222670E036E230E046E76EC5DF0A5
:1029C60001500001B02727EF18F0010191510F6E59
:1029D600106A116A126A770E0001B025136E146A26
:1029E600020E1422C3EC44F00F500001B02727EF6B
:1029F60018F0010194510F6E106A116A126A770E6F
:102A06000001B025136E146A020E1422C3EC44F0C2
:102A16000F500001B02727EF18F020EE01F09A5171
:102A2600D9269B51DA22DF50D8B41CEF15F01EEFE1
:102A360015F020EF15F03FEF12F0770EB025D96EA6
:102A4600DA6A020EDA22460EDF6EB02B770EB0255A
:102A5600D96EDA6A020EDA22410EDF6EB02B770EDD
:102A6600B025D96EDA6A020EDA22490EDF6EB02B75
:102A7600770EB025D96EDA6A020EDA224C0EDF6EB8
:102A8600B02B27EF18F095C194F096C195F097C139
:102A960096F098C197F0770EB025986F996B020E55
:102AA600992326EC66F000019451B027770EB025E5
:102AB600D96EDA6A020EDA222C0EDF6EB02B99C1BD
:102AC60094F09AC195F09BC196F09CC197F0770E51
:102AD600B025986F996B020E992326EC66F00001DB
:102AE6009451B02727EF18F0B007000EAE6F000E16
:102AF600AD6FAEBF88EF15F0AE5109E1080EAD5DC2
:102B0600D8A088EF15F08AEF15F08CEF15F027EFB7
:102B160018F0D10EAD25D96E010EAE21DA6E770E04
:102B2600B025E16EE26A020EE222DFCFE7FFB02BAC
:102B3600AD4BAE2B7CEF15F095C194F096C195F098
:102B460097C196F098C197F0770EB025986F996B5C
:102B5600020E992326EC66F000019451B02727EF68
:102B660018F095C194F096C195F097C196F098C16A
:102B760097F0770EB025986F996B020E992326EC85
:102B860066F000019451B027770EB025D96EDA6A47
:102B9600020EDA222C0EDF6EB02B99C194F09AC188
:102BA60095F09BC196F09CC197F0770EB025986F73
:102BB600996B020E992326EC66F000019451B0271A
:102BC600770EB025D96EDA6A020EDA222C0EDF6E87
:102BD600B02BA5C194F0A6C195F0A7C196F0A8C1E7
:102BE60097F0770EB025986F996B020E992326EC15
:102BF60066F000019451B02727EF18F09E51D8A433
:102C060007EF16F009EF16F01EEF16F09DC194F0CF
:102C16009EC195F09FC196F0A0C197F0770EB025A2
:102C2600986F996B020E992326EC66F00001945179
:102C3600B02727EF18F0A1C194F0A2C195F0A3C167
:102C460096F0A4C197F0770EB025986F996B020E97
:102C5600992326EC66F000019451B02727EF18F06F
:102C6600010192510F6E106A116A126A770E000105
:102C7600B025136E146A020E1422C3EC44F00F50F2
:102C86000001B02727EF18F0A9C194F0AAC195F06A
:102C9600ABC196F0ACC197F0770EB025986F996BE3
:102CA600020E992326EC66F000019451B02727EF17
:102CB60018F0ADC194F0AEC195F0AFC196F0B0C1B9
:102CC60097F0770EB025986F996B020E992326EC34
:102CD60066F000019451B02727EF18F0C5C10FF038
:102CE600C6C110F0C7C111F0C8C112F0770EB025E9
:102CF600136E146A020E1422C3EC44F00F50000146
:102D0600B02727EF18F0C9C10FF0CAC110F0CBC128
:102D160011F0CCC112F0770EB025136E146A020EB4
:102D26001422C3EC44F00F500001B02727EF18F02F
:102D3600CDC10FF0CEC110F0CFC111F0D0C112F04D
:102D4600770EB025136E146A020E1422C3EC44F0FB
:102D56000F500001B02727EF18F00101B1510F6E97
:102D6600106A116A126A770E0001B025136E146A92
:102D7600020E1422C3EC44F00F500001B02727EFD7
:102D860018F0BFC194F0C0C195F0C1C196F0C2C1A0
:102D960097F0770EB025986F996B020E992326EC63
:102DA60066F000019451B02727EF18F0B3C194F0F4
:102DB600B4C195F0B5C196F0B6C197F0770EB025BF
:102DC600986F996B020E992326EC66F000019451D8
:102DD600B027770EB025D96EDA6A020EDA222C0EEB
:102DE600DF6EB02BB7C194F0B8C195F0B9C196F0BB
:102DF600BAC197F0770EB025986F996B020E99239A
:102E060026EC66F000019451B02727EF18F065C351
:102E160094F066C395F067C396F068C397F0770E93
:102E2600B025986F996B020E992326EC66F0000187
:102E36009451B02727EF18F0BBC101F0BCC102F0D6
:102E4600BDC103F0BEC104F0000E056E000E066E95
:102E5600000E076E000E086EFDEC5AF0D8A036EF95
:102E660017F038EF17F043EF17F0000E0001F86F78
:102E7600000EF96F000EFA6F000EFB6F5DEF17F094
:102E8600BBC160F0BCC161F0BDC162F0BEC163F000
:102E960068C164F069C165F06AC166F06BC167F02C
:102EA60096EC2FF060C0F8F061C0F9F062C0FAF05D
:102EB60063C0FBF0BBC194F0BCC195F0BDC196F0F8
:102EC600BEC197F0770E0001B025986F996B020E80
:102ED600992326EC66F000019451B027770EB025B1
:102EE600D96EDA6A020EDA222C0EDF6EB02BF8C02B
:102EF60094F0F9C095F0FAC096F0FBC097F0770E03
:102F0600B025986F996B020E992326EC66F00001A6
:102F16009451B027770EB025D96EDA6A020EDA22FE
:102F26002C0EDF6EB02BC3C10FF0C4C110F0116AB6
:102F3600126A770EB025136E146A020E1422C3ECC1
:102F460044F00F500001B02727EF18F0000120EEE3
:102F560003F09A51D9269B51DA22DF50010AD8B4E0
:102F66003FEF12F0030AD8B453EF12F0070AD8B4B1
:102F7600B2EF12F0030AD8B44AEF13F0010AD8B43C
:102F8600E3EF13F00F0AD8B464EF12F0010AD8B4D5
:102F96009DEF12F0050AD8B478EF15F0010AD8B4FF
:102FA6000AEF17F0030AD8B41FEF17F0010AD8B4D6
:102FB600D9EF16F01F0AD8B43FEF12F0010AD8B4C1
:102FC60077EF15F0030AD8B410EF15F0010AD8B45C
:102FD60010EF15F0070AD8B446EF15F0010AD8B479
:102FE6009FEF15F0030AD8B4B4EF15F0010AD8B470
:102FF60001EF16F00F0AD8B4E8EF14F0010AD8B4BE
:10300600FCEF14F0030AD8B433EF16F0010AD8B473
:1030160047EF16F0070AD8B45CEF16F0010AD8B4E9
:10302600B0EF16F0030AD8B4C4EF16F0010AD8B40C
:1030360086EF16F03F0AD8B471EF16F0010AD8B43D
:103046009BEF16F027EF18F0770EB025D96EDA6AE7
:10305600020EDA220D0EDF6EB02B770EB025D96E7A
:10306600DA6A020EDA220A0EDF6EB02B770EB02570
:10307600D96EDA6A020EDA22000EDF6EB02B770EF8
:10308600086E020E096E3DEC69F01200000E00019A
:10309600806F000E7F6F710E7D6F000E7E6FC9EF21
:1030A6001CF0250E9319D8B45BEF18F05DEF18F0FD
:1030B60069EF18F06DC0D9FF6EC0DAFF93C0DFFF6D
:1030C6006D4B6E2B7F4B802BC9EF1CF0000E826F71
:1030D600000E816F6FC0F6FF70C0F7FF0800F55055
:1030E6002E0AD8A479EF18F07BEF18F0BAEF18F093
:1030F600828D6F4B702B000E8E6F000E8D6FA9EFB9
:1031060018F08DC001F08EC002F0000E046E0A0E9B
:10311600036EEAEC69F001C08DF002C08EF0D00EAD
:103126000001756FFF0E766F6FC0F6FF70C0F7FF78
:103136000800F550776F786B7551772776517823AD
:1031460077518D2778518E236F4B702B6FC0F6FF0A
:1031560070C0F7FF0800F550C1EC68F0D8B0B6EFC4
:1031660018F0B8EF18F084EF18F0C4EF18F0000E5E
:103176008E6F000E8D6F8289C4EF18F08285D9EFAD
:1031860018F06FC0F6FF70C0F7FF00016F4B702B91
:103196000800F5CF93F09351000AD8B4DAEF1CF08B
:1031A600660AD8B4C1EF18F0C9EF1CF0070E8215F5
:1031B600D8B4E0EF18F0E2EF18F076EF1CF082A931
:1031C600E7EF18F0E9EF18F0EDEF18F0000E8E6F4C
:1031D600060E8D6F7DC0D9FF7EC0DAFFDECF8FF081
:1031E600DECF90F0DECF91F0DECF92F0040E7D2799
:1031F600000E7E2392BF04EF19F002EF19F019EFCB
:1032060019F08FC001F090C002F091C003F092C097
:1032160004F003EC68F001C08FF002C090F003C028
:1032260091F004C092F0030E00018113000E886F26
:10323600000E876F8FC001F090C002F091C003F0BE
:1032460092C004F0000E056E000E066E000E076EAC
:10325600000E086EFDEC5AF0D8B034EF19F036EFD8
:1032660019F0C9EF19F0000191359235820F876F79
:10327600886BFF0E88238707D8A0880787C001F0D0
:1032860088C002F0000E046E030E036EEAEC69F0CD
:1032960001C087F002C088F087C007F088C008F038
:1032A600000E0A6E0A0E096EFDEC55F007C087F097
:1032B60008C088F0000188BF65EF19F063EF19F0C8
:1032C60068EF19F08707D8A088078751000888ECAF
:1032D6002DF060C089F061C08AF062C08BF063C0D7
:1032E6008CF089C043F08AC044F08BC045F08CC096
:1032F60046F08FC047F090C048F091C049F092C0A8
:103306004AF073EC2BF043C089F044C08AF045C004
:103316008BF046C08CF089C001F08AC002F08BC0E9
:1033260003F08CC004F0000E056E000E066E800ED3
:10333600076E3F0E086E6CEC51F0D8B0A5EF19F091
:10334600A7EF19F0ADEF19F000018707D8A088079D
:10335600C9EF19F089C001F08AC002F08BC003F0F2
:103366008CC004F0000E056E000E066E200E076E71
:10337600410E086E6CEC51F0D8A0C4EF19F0C6EF00
:1033860019F0C9EF19F00001874B882B00018EBF99
:10339600D8EF19F08E5107E10D0E8D5DD8B0D6EF3E
:1033A60019F0D8EF19F0F5EF19F08FC027F090C09B
:1033B60028F091C029F092C02AF08D51F6EC35F034
:1033C60060C02BF061C02CF062C02DF063C02EF0FF
:1033D60013EC29F027C08FF028C090F029C091F097
:1033E6002AC092F0000188BF04EF1AF0885107E165
:1033F6000A0E875DD8B002EF1AF004EF1AF041EF1B
:103406001AF08FC001F090C002F091C003F092C094
:1034160004F0000E056E000E066E000E076E000E1E
:10342600086EFDEC5AF0D8B01BEF1AF01DEF1AF03B
:1034360096EF1AF08FC00FF090C010F091C011F007
:1034460092C012F0E9EC50F00F501010111012104B
:10345600D8A430EF1AF032EF1AF096EF1AF0000106
:1034660088BF3FEF1AF0885109E1020E875DD8A0A8
:103476003FEF1AF041EF1AF096EF1AF089C001F00B
:103486008AC002F08BC003F08CC004F05F0E056E9C
:10349600700E066E890E076E400E086E6CEC51F0CB
:1034A600D8B058EF1AF05AEF1AF061EF1AF000018F
:1034B600F70E8727FF0E882366EF1AF00001F80E35
:1034C6008727FF0E8823875188EC2DF060C089F08E
:1034D60061C08AF062C08BF063C08CF08FC001F0CF
:1034E60090C002F091C003F092C004F089C005F0CC
:1034F6008AC006F08BC007F08CC008F0DAEC48F002
:1035060001C083F002C084F003C085F004C086F0D9
:10351600000E00018F6F000E906F000E916F000E6F
:10352600926FD2EF1AF08FC00FF090C010F091C0DA
:1035360011F092C012F0E9EC50F00FC083F010C009
:1035460084F011C085F012C086F08FC037F090C0AD
:1035560038F091C039F092C03AF083C019F084C0B7
:103566001AF085C01BF086C01CF0000EC1EC40F0BE
:1035760019C03BF01AC03CF01BC03DF01CC03EF029
:1035860008EC67F037C08FF038C090F039C091F082
:103596003AC092F0000E0001886F000E876F010E90
:1035A600936F9351040D050EF324F66E230EF4204B
:1035B600F76E0900F550835D0900F550845909003E
:1035C600F55085590900F5508659D8B0EDEF1AF037
:1035D600EFEF1AF0F1EF1AF0FBEF1AF0932B0A0E49
:1035E6009319D8A4F9EF1AF0FBEF1AF0D4EF1AF0FA
:1035F600030E8115756F000E8215766F7551761163
:10360600D8B408EF1BF00AEF1BF060EF1BF06DC09B
:10361600D9FF6EC0DAFF2D0EDF6E6D4B6E2B7F4B22
:10362600802B60EF1BF083C001F084C002F085C0E0
:1036360003F086C004F09351040D050EF324F66ED4
:10364600230EF420F76E0900F5CF05F00900F5CF3B
:1036560006F00900F5CF07F00A00F5CF08F0A5EC53
:103666005BF001C089F002C08AF003C08BF004C091
:103676008CF089C001F08AC002F08BC003F08CC0C8
:1036860004F00A0E056E000E066E000E076E000EA2
:10369600086E20EC5FF001C089F002C08AF003C01A
:1036A6008BF004C08CF000018951300F6DC0D9FF3A
:1036B6006EC0DAFFDF6E10EF1BF093079329D8A4D4
:1036C60067EF1BF069EF1BF016EF1BF078EF1BF0AE
:1036D6006DC0D9FF6EC0DAFF300EDF6E6D4B6E2BFC
:1036E6007F4B802B8707D8A0880788BF85EF1BF004
:1036F600885106E18705D8B083EF1BF085EF1BF0F4
:103706006BEF1BF08EBF91EF1BF08E5109E1090E96
:103716008D5DD8A091EF1BF093EF1BF097EF1BF098
:10372600080E936F99EF1BF08DC093F093518D5F48
:10373600000E8E5B9351D8B4A3EF1BF0A5EF1BF0E0
:10374600AFEF1BF06DC0D9FF6EC0DAFF2E0EDF6E35
:103756006D4B6E2B7F4B802B935188EC2DF060C008
:1037660079F061C07AF062C07BF063C07CF08FC0F4
:1037760047F090C048F091C049F092C04AF079C035
:1037860043F07AC044F07BC045F07CC046F073EC51
:103796002BF043C00FF044C010F045C011F046C0F6
:1037A60012F0E9EC50F00FC083F010C084F011C0A5
:1037B60085F012C086F052EF1CF083C001F084C081
:1037C60002F085C003F086C004F09351040D050E87
:1037D600F324F66E230EF420F76E0900F5CF05F0FC
:1037E6000900F5CF06F00900F5CF07F00A00F5CF7E
:1037F60008F0A5EC5BF001C089F002C08AF003C0B6
:103806008BF004C08CF089C001F08AC002F08BC036
:1038160003F08CC004F00A0E056E000E066E000E54
:10382600076E000E086E20EC5FF001C089F002C042
:103836008AF003C08BF004C08CF000018951300F70
:103846006DC0D9FF6EC0DAFFDF6E6D4B6E2B7F4BFE
:10385600802B83C001F084C002F085C003F086C0CF
:1038660004F09351040D050EF324F66E230EF42096
:10387600F76E0900F5CF05F00900F5CF06F009004F
:10388600F5CF07F00A00F5CF08F020EC5FF001C095
:1038960083F002C084F003C085F004C086F0000106
:1038A60093079329D8A45AEF1CF05CEF1CF0E0EFC5
:1038B6001BF06BEF1CF06DC0D9FF6EC0DAFF300E47
:1038C600DF6E6D4B6E2B7F4B802B8D07D8A08E073E
:1038D6008D518E11D8A472EF1CF074EF1CF05EEFC0
:1038E6001CF0C9EF1CF08D518E11D8A47DEF1CF091
:1038F6007FEF1CF08CEF1CF083518411851186112B
:10390600D8A488EF1CF08AEF1CF08CEF1CF08D4BCE
:103916008E2B9351756F766B8D51755D7651800A3E
:10392600776F8E51800A7759D8B09CEF1CF09EEFC6
:103936001CF0A0EF1CF0B2EF1CF09351756F766B84
:1039460075518D5D8E51800A776F7651800A775951
:10395600D8B0B0EF1CF0B2EF1CF0B2EF1CF0030EC3
:103966008115756F000E8215766F75517611D8B474
:10397600BFEF1CF0C1EF1CF0C9EF1CF06DC0D9FF02
:103986006EC0DAFF2D0EDF6E63EF18F06FC0F6FF24
:1039960070C0F7FF6F4B702B0800F5CF93F0935173
:1039A600D8A4D8EF1CF0DAEF1CF054EF18F06DC075
:1039B600D9FF6EC0DAFF000EDF6E7FC06DF080C0EB
:1039C6006EF01200000120EE55F08551D926865181
:1039D600DA22000EDE6E000EDE6E000EDE6E000EC9
:1039E600DD6E20EE5DF08551D9268651DA22000E75
:1039F600DE6E000EDE6E000EDE6E000EDD6E20EE5A
:103A060059F08551D9268651DA22000EDE6E000E57
:103A1600DE6E000EDE6E000EDD6E20EE61F085516C
:103A2600D9268651DA22000EDE6E000EDE6E000EFC
:103A3600DE6E000EDD6E20EE51F08551D9268651E0
:103A4600DA22DECF01F0DECF02F0DECF03F0DECFEA
:103A560004F0000E056E000E066E700E076E420E26
:103A6600086EFDEC5AF0D8B03BEF1DF03DEF1DF0AF
:103A7600EAEF1DF0000120EE51F08551D92686515E
:103A8600DA22DECF27F0DECF28F0DECF29F0DECF38
:103A96002AF0000E2B6E000E2C6E800E2D6E3F0E41
:103AA6002E6E13EC29F0000120EE51F08551D92637
:103AB6008651DA2227C0DEFF28C0DEFF29C0DEFFDE
:103AC6002AC0DEFF000E7D6F000E7E6FC00E7F6F78
:103AD600400E806F20EE51F08551D9268651DA22AC
:103AE600DECF79F0DECF7AF0DECF7BF0DECF7CF072
:103AF60048EC59F079C091F07AC092F07BC093F00F
:103B06007CC094F091C001F092C002F093C003F023
:103B160094C004F0000E056E000E066E000E076ED1
:103B2600000E086EFDEC5AF0D8A09CEF1DF09EEF3B
:103B36001DF08BEF1EF0000120EE51F08551D926C5
:103B46008651DA2210EE50F08551E1268651E222A6
:103B5600E7508B6F8B51040DF3CF8CF0F4CF8DF0C3
:103B66008C518525E16E8D518621E26EDECFE6FF12
:103B7600DECFE6FFDECFE6FFDECFE6FF20EE50F03B
:103B86008551D9268651DA22DF508B6F8B51040D71
:103B960085C08CF086C08DF0F3508C27F4508D23B1
:103BA600280E8C25D96E000E8D21DA6E87C0DEFFB9
:103BB60088C0DEFF89C0DEFF8AC0DEFF20EE50F03F
:103BC6008551D9268651DA22DF2A8BEF1EF00001B5
:103BD600D12B060ED119D8A4F3EF1DF0F5EF1DF089
:103BE6008BEF1EF0000ED16F000E956F95518B6F07
:103BF6008C6BD8908B378C37D8908B378C3785C0A9
:103C06008DF086C08EF08B518D278C518E23040E3D
:103C16008D25D96E000E8E21DA6EDECF27F0DECF2F
:103C260028F0DECF29F0DECF2AF0000E2B6E000E34
:103C36002C6EC00E2D6EC00E2E6E13EC29F00001F8
:103C46009551040DF3CF8FF0F4CF90F08F51852569
:103C5600D96E90518621DA6E27C0DEFF28C0DEFFBE
:103C660029C0DEFF2AC0DEFF95518B6F8C6BD89082
:103C76008B378C37D8908B378C3785C08DF086C0C4
:103C86008EF08B518D278C518E232C0E8D25D96E5F
:103C9600000E8E21DA6E9551040D85C08FF086C018
:103CA60090F0F3508F27F4509023280E8F25E16E65
:103CB600000E9021E26EDECFE6FFDECFE6FFDECF1E
:103CC600E6FFDECFE6FF952B080E95656DEF1EF03D
:103CD6006FEF1EF0F9EF1DF020EE24F08551D92686
:103CE6008651DA22000EDE6E000EDE6E700EDE6E7D
:103CF600420EDD6E20EE4CF08551D9268651DA2231
:103D060087C0DEFF88C0DEFF89C0DEFF8AC0DEFF17
:103D1600000E0001956F20EE55F08551D92686518B
:103D2600DA22DECF27F0DECF28F0DECF29F0DECF95
:103D36002AF09551040DF3CF8BF0F4CF8CF08B5114
:103D46008525D96E8C518621DA6EDECF2BF0DECF3B
:103D56002CF0DECF2DF0DECF2EF013EC29F0000193
:103D660020EE55F08551D9268651DA2227C0DEFF8E
:103D760028C0DEFF29C0DEFF2AC0DEFF20EE5DF090
:103D86008551D9268651DA22DECF27F0DECF28F0FC
:103D9600DECF29F0DECF2AF09551040D85C08BF0D9
:103DA60086C08CF0F3508B27F4508C23280E8B257D
:103DB600D96E000E8C21DA6EDECF2BF0DECF2CF022
:103DC600DECF2DF0DECF2EF013EC29F0000120EE31
:103DD6005DF08551D9268651DA2227C0DEFF28C03C
:103DE600DEFF29C0DEFF2AC0DEFF20EE59F0855136
:103DF600D9268651DA22DECF27F0DECF28F0DECFB5
:103E060029F0DECF2AF09551040DF3CF8BF0F4CFD5
:103E16008CF08B518525D96E8C518621DA6EDECFDA
:103E260047F0DECF48F0DECF49F0DECF4AF09551BD
:103E3600040DF3CF8DF0F4CF8EF08D518525D96E1C
:103E46008E518621DA6EDECF43F0DECF44F0DECF30
:103E560045F0DECF46F073EC2BF043C02BF044C0A8
:103E66002CF045C02DF046C02EF013EC29F00001D1
:103E760020EE59F08551D9268651DA2227C0DEFF79
:103E860028C0DEFF29C0DEFF2AC0DEFF20EE61F07B
:103E96008551D9268651DA22DECF27F0DECF28F0EB
:103EA600DECF29F0DECF2AF09551040D85C08BF0C8
:103EB60086C08CF0F3508B27F4508C23280E8B256C
:103EC600D96E000E8C21DA6EDECF47F0DECF48F0D9
:103ED600DECF49F0DECF4AF09551040DF3CF8DF0D9
:103EE600F4CF8EF08D518525D96E8E518621DA6EEE
:103EF600DECF43F0DECF44F0DECF45F0DECF46F036
:103F060073EC2BF043C02BF044C02CF045C02DF0D1
:103F160046C02EF013EC29F0000120EE61F0855129
:103F2600D9268651DA2227C0DEFF28C0DEFF29C047
:103F3600DEFF2AC0DEFF952B090E9565A5EF1FF063
:103F4600A7EF1FF08EEF1EF020EE5DF08551D9260B
:103F56008651DA22DECF47F0DECF48F0DECF49F0D9
:103F6600DECF4AF020EE55F08551D9268651DA2269
:103F7600DECF43F0DECF44F0DECF45F0DECF46F0B5
:103F860073EC2BF043C03BF044C03CF045C03DF021
:103F960046C03EF0000E476E000E486E200E496E7B
:103FA600410E4A6E000120EE61F08551D9268651F8
:103FB600DA22DECF43F0DECF44F0DECF45F0DECFAF
:103FC60046F073EC2BF043C037F044C038F045C0E0
:103FD60039F046C03AF008EC67F037C060F038C0F8
:103FE60061F039C062F03AC063F0000120EE55F08E
:103FF6008551D9268651DA22DECF47F0DECF48F04A
:10400600DECF49F0DECF4AF020EE55F08551D926B5
:104016008651DA22DECF43F0DECF44F0DECF45F024
:10402600DECF46F073EC2BF043C03BF044C03CF0CF
:1040360045C03DF046C03EF0000E476E000E486E8D
:10404600200E496E410E4A6E000120EE59F0855150
:10405600D9268651DA22DECF43F0DECF44F0DECF1A
:1040660045F0DECF46F073EC2BF043C037F044C08A
:1040760038F045C039F046C03AF008EC67F037C072
:1040860064F038C065F039C066F03AC067F096EC67
:104096002FF0000120EE65F08551D9268651DA22EF
:1040A60060C0DEFF61C0DEFF62C0DEFF63C0DEFF10
:1040B60020EE55F08551D9268651DA22DECF47F01B
:1040C600DECF48F0DECF49F0DECF4AF020EE65F0D5
:1040D6008551D9268651DA22DECF43F0DECF44F071
:1040E600DECF45F0DECF46F073EC2BF043C03BF05D
:1040F60044C03CF045C03DF046C03EF0000120EE15
:104106005DF08551D9268651DA22DECF37F0DECF33
:1041160038F0DECF39F0DECF3AF008EC67F037C082
:1041260060F038C061F039C062F03AC063F0000E4A
:104136000001646F000E656F200E666F410E676F9B
:1041460096EC2FF0000120EE69F08551D9268651B4
:10415600DA2260C0DEFF61C0DEFF62C0DEFF63C040
:10416600DEFF120022EE50F010EE8AF0110EDBCFC9
:10417600E3FFE806FCE2910EF66E230EF76E0800EA
:10418600F5503F0AD8B4CAEF20F0CCEF20F006EF86
:1041960021F0980EF66E230EF76E0800F550016EAC
:1041A600026A030E046EE80E036EEAEC69F0990EDD
:1041B600F66E230EF76E0800F550640DF3CF3AF055
:1041C600F4CF3BF09A0EF66E230EF76E0800F5500C
:1041D6000A0DF3503A26F4503B2201503A2602507B
:1041E6003B229B0EF66E230EF76E0800F5503A261C
:1041F600000E3B22B00E3A240001646F2F0E3B20C6
:10420600656F0BEF21F0000E0001656F630E646FA2
:10421600940E6425946FF80E6521956F910EF66ED7
:10422600230EF76E0800F5503F0AD8B41DEF21F0B3
:104236001FEF21F0EDEF22F0910EF66E230EF76ED2
:104246000800F5504A0AD8A42BEF21F02DEF21F0F3
:1042560049EF21F0920EF66E230EF76E0800F55028
:10426600610AD8A439EF21F03BEF21F049EF21F0A4
:10427600930EF66E230EF76E0800F5506E0AD8B44C
:1042860047EF21F049EF21F0E3EF22F0910EF66EB1
:10429600230EF76E0800F550460AD8B455EF21F004
:1042A60057EF21F0D9EF22F0910EF66E230EF76E3E
:1042B6000800F5504D0AD8A463EF21F065EF21F010
:1042C60081EF21F0920EF66E230EF76E0800F55080
:1042D600610AD8A471EF21F073EF21F081EF21F08C
:1042E600930EF66E230EF76E0800F550720AD8B4D8
:1042F6007FEF21F081EF21F0CFEF22F0910EF66EE5
:10430600230EF76E0800F550410AD8A48DEF21F070
:104316008FEF21F09DEF21F0920EF66E230EF76ED1
:104326000800F550700AD8B49BEF21F09DEF21F0FC
:10433600C5EF22F0910EF66E230EF76E0800F550CB
:104346004D0AD8A4A9EF21F0ABEF21F0C7EF21F079
:10435600920EF66E230EF76E0800F550610AD8A489
:10436600B7EF21F0B9EF21F0C7EF21F0930EF66E0B
:10437600230EF76E0800F550790AD8B4C5EF21F080
:10438600C7EF21F0BBEF22F0910EF66E230EF76E0B
:104396000800F5504A0AD8A4D3EF21F0D5EF21F052
:1043A600F1EF21F0920EF66E230EF76E0800F5502F
:1043B600750AD8A4E1EF21F0E3EF21F0F1EF21F047
:1043C600930EF66E230EF76E0800F5506E0AD8B4FB
:1043D600EFEF21F0F1EF21F0B1EF22F0910EF66E42
:1043E600230EF76E0800F5504A0AD8A4FDEF21F017
:1043F600FFEF21F01BEF22F0920EF66E230EF76E02
:104406000800F550750AD8A40BEF22F00DEF22F044
:104416001BEF22F0930EF66E230EF76E0800F55092
:104426006C0AD8B419EF22F01BEF22F0A7EF22F0A6
:10443600910EF66E230EF76E0800F550410AD8A4C9
:1044460027EF22F029EF22F037EF22F0920EF66ED8
:10445600230EF76E0800F550750AD8B435EF22F032
:1044660037EF22F09DEF22F0910EF66E230EF76ED7
:104476000800F550530AD8B443EF22F045EF22F076
:1044860093EF22F0910EF66E230EF76E0800F550AC
:104496004F0AD8B451EF22F053EF22F089EF22F001
:1044A600910EF66E230EF76E0800F5504E0AD8B43C
:1044B6005FEF22F061EF22F07FEF22F0910EF66EB1
:1044C600230EF76E0800F550440AD8B46DEF22F0BB
:1044D6006FEF22F075EF22F0000E7F6F630E7E6F96
:1044E60079EF22F0000E7F6F0C0E7E6F7EC07CF09F
:1044F6007FC07DF083EF22F0000E7D6F0B0E7C6F88
:104506007CC07AF07DC07BF08DEF22F0000E7B6FD1
:104516000A0E7A6F7AC078F07BC079F097EF22F0B6
:10452600000E796F090E786F78C076F079C077F053
:10453600A1EF22F0000E776F080E766F76C074F04A
:1045460077C075F0ABEF22F0000E756F070E746F33
:1045560074C072F075C073F0B5EF22F0000E736F81
:10456600060E726F72C070F073C071F0BFEF22F06A
:10457600000E716F050E706F70C06EF071C06FF037
:10458600C9EF22F0000E6F6F040E6E6F6EC06CF0F6
:104596006FC06DF0D3EF22F0000E6D6F030E6C6FDF
:1045A6006CC06AF06DC06BF0DDEF22F0000E6B6F31
:1045B600020E6A6F6AC068F06BC069F0E7EF22F01E
:1045C600000E696F010E686F68C066F069C067F01B
:1045D600F1EF22F0000E676F630E666FFF0E662521
:1045E600926FFF0E6721936F910EF66E230EF76E94
:1045F6000800F5503F0AD8B403EF23F005EF23F087
:1046060043EF23F0950EF66E230EF76E300E08007C
:10461600F56010EF23F012EF23F018EF23F0000EF1
:10462600836F000E826F2FEF23F0950EF66E230E2A
:10463600F76E0800F5CF3AF0D00E3A24016E026A02
:10464600FF0E0222000E046E0A0E036EEAEC69F0FB
:1046560001C082F002C083F0960EF66E230EF76E4E
:104666000800F550000182253A6E000E83213B6E4C
:10467600D00E3A24806FFF0E3B20816F47EF23F068
:10468600000E816F630E806F80C090F081C091F044
:10469600A60EF66E230EF76E0800F5503F0AD8B444
:1046A60057EF23F059EF23F075EF23F0A60EF66EC1
:1046B600230EF76E0800F5500A0DF3CF3AF0F4CF4B
:1046C6003BF0A70EF66E230EF76E0800F5503A265D
:1046D600000E3B22F00E3A24846FFD0E3B20856FC0
:1046E60079EF23F0000E856F630E846FF70E842535
:1046F6008E6FFF0E85218F6FA60EF66E230EF76E58
:104706000800F5503F0AD8B48BEF23F08DEF23F065
:10471600A9EF23F0A90EF66E230EF76E0800F550EA
:104726000A0DF3CF3AF0F4CF3BF0AA0EF66E230E45
:10473600F76E0800F5503A26000E3B22F00E3A249A
:10474600866FFD0E3B20876FADEF23F0000E876F5F
:10475600630E866F86C08CF087C08DF0A60EF66E4F
:10476600230EF76E0800F5503F0AD8B4BDEF23F0CC
:10477600BFEF23F0DBEF23F0AC0EF66E230EF76EE1
:104786000800F5500A0DF3CF3AF0F4CF3BF0AD0E2A
:10479600F66E230EF76E0800F5503A26000E3B2201
:1047A600F00E3A24886FFD0E3B20896FDFEF23F071
:1047B600000E896F630E886F88C08AF089C08BF0FF
:1047C6008A0E286E000E296EF9EC3AF028C060F0C9
:1047D60029C061F02AC062F02BC063F060C036F0D9
:1047E60061C037F062C038F063C039F012009CC077
:1047F600D9FF9DC0DAFFDF505C6E5D6AFF0E5C2458
:10480600FF0E5D20800BD8A40BEF24F00DEF24F0F3
:104816001CEF24F09CC0D9FF9DC0DAFFDF505C6E10
:10482600FF0E5C2400019F6FA06BFF0EA02321EFFB
:1048360024F0000E0001A06F000E9F6F9FC09EF037
:1048460006EF26F021EC6BF088EF26F01AEC6BF001
:1048560088EF26F0100E9C25016E000E9D21026E3B
:10486600FFEC65F0080E01180210D8B43DEF24F0F5
:104876003FEF24F041EF24F05BEF26F0100E00012D
:104886009C25016E000E9D21026E000E046E080E20
:10489600036E9AEC66F00009D8B454EF24F056EF94
:1048A60024F05BEF26F083EC69F0000E0001A26FA6
:1048B600000EA16FA1519C255C6EA2519D215D6EDB
:1048C600100E5C24D96E000E5D20DA6ED10EA12585
:1048D600E16E010EA221E26EDFCFE7FFA14BA22B14
:1048E600A2BF7FEF24F0A25109E1080EA15DD8A076
:1048F6007FEF24F081EF24F05DEF24F05BEF26F0EC
:10490600100E9C250D6E000E9D210E6E26EC4AF0B3
:104916000D500001A36F020EA36194EF24F096EFF1
:1049260024F05BEF26F0A3C091F15BEF26F0100EAA
:104936009C250D6E000E9D210E6E26EC4AF00D5044
:104946000001A36F020EA361ABEF24F0ADEF24F0DC
:104956005BEF26F0A3C094F15BEF26F0000E010199
:10496600936F5BEF26F0010E0101936F5BEF26F06C
:104976009E51D8A4C1EF24F0C3EF24F0D5EF24F064
:10498600100E9C25796F000E9D217A6FC7EC39F0C9
:1049960079C09DF17AC09EF17BC09FF17CC0A0F1E9
:1049A6005BEF26F0100E9C25796F000E9D217A6F25
:1049B600C7EC39F079C0A1F17AC0A2F17BC0A3F1AE
:1049C6007CC0A4F15BEF26F0100E9C25056E000E50
:1049D6009D21066E300E9C25076E000E9D21086EE9
:1049E600030E096E200E0A6E9FEC4CF05C6E010EF3
:1049F6005C6400EF25F002EF25F088EF26F0300E1C
:104A060000019C25796F000E9D217A6FC7EC39F065
:104A160079C095F17AC096F17BC097F17CC098F188
:104A2600500E00019C25796F000E9D217A6FC7EC10
:104A360039F079C099F17AC09AF17BC09BF17CC0BC
:104A46009CF130C1A5F131C1A6F132C1A7F133C144
:104A5600A8F15BEF26F0100E9C25796F000E9D21C4
:104A66007A6FC7EC39F079C099F17AC09AF17BC0B8
:104A76009BF17CC09CF15BEF26F01CC195F11DC13A
:104A860096F11EC197F11FC198F130C1A5F131C150
:104A9600A6F132C1A7F133C1A8F15BEF26F0100EE3
:104AA6009C250D6E000E9D210E6E26EC4AF00D50D3
:104AB6000001A36FA351D8B463EF25F065EF25F08D
:104AC6005BEF26F0100EA3616BEF25F06DEF25F07E
:104AD6005BEF26F0A3C092F1010192510FEC3CF07E
:104AE6005BEF26F0100E9C25796F000E9D217A6FE4
:104AF600C7EC39F079C0A9F17AC0AAF17BC0ABF155
:104B06007CC0ACF1D90E016E010E026EA9C103F094
:104B1600AAC104F0ABC105F0ACC106F0EEEC6AF038
:104B26005BEF26F0100E9C25796F000E9D217A6FA3
:104B3600C7EC39F079C0ADF17AC0AEF17BC0AFF108
:104B46007CC0B0F1D90E016E010E026EADC103F04C
:104B5600AEC104F0AFC105F0B0C106F0D1EC6AF009
:104B66005BEF26F0100E9C250D6E000E9D210E6E3D
:104B760026EC4AF00DC0C9F10EC0CAF10FC0CBF148
:104B860010C0CCF15BEF26F0100E9C250D6E000ECA
:104B96009D210E6E26EC4AF00DC0C5F10EC0C6F181
:104BA6000FC0C7F110C0C8F15BEF26F0100E9C25B0
:104BB6000D6E000E9D210E6E26EC4AF00D50000182
:104BC600A36F020EA361EAEF25F0ECEF25F05BEF91
:104BD60026F0A3C0B1F15BEF26F0100E9C25796F8D
:104BE600000E9D217A6FC7EC39F079C0BFF17AC00B
:104BF600C0F17BC0C1F17CC0C2F15BEF26F0010EB3
:104C0600E56F5BEF26F020EE03F09C51D9269D510F
:104C1600DA22DF50030AD8B425EF24F0070AD8B405
:104C260029EF24F0140AD8B402EF26F0010AD8B40A
:104C36002DEF24F0030AD8B4B1EF24F0010AD8B45A
:104C4600B6EF24F0070AD8B4E7EF24F0010AD8B487
:104C560040EF25F0030AD8B42EEF25F0010AD8B4A8
:104C6600BBEF24F00F0AD8B483EF24F0010AD8B4BE
:104C76009AEF24F0030AD8B452EF25F0010AD8B40B
:104C860075EF25F0070AD8B495EF25F0010AD8B4D8
:104C9600D9EF25F0030AD8B4F0EF25F0010AD8B40D
:104CA600B5EF25F03F0AD8B4C7EF25F05BEF26F045
:104CB600000120EE03F09C51D9269D51DA22100EF8
:104CC600DF6468EF26F06AEF26F088EF26F020EE24
:104CD60003F09C51D9269D51DA22210EDF6076EF32
:104CE60026F078EF26F088EF26F0910E116E010E71
:104CF600126EBFEC66F05C6E000120EE01F09C5176
:104D0600D9269D51DA225CC0DFFF1200000E4C6EE0
:104D160020EE41F00A0EDE6AE806FDE220EE20F003
:104D26001F0EDE6AE806FDE2000E506E000E4F6EA4
:104D3600000E406E1BC0D9FF1CC0DAFFDF50516E5B
:104D4600ECEF28F0410E5118D8B4ACEF26F0AEEFD8
:104D560026F0C9EF26F0540E5118D8B4B5EF26F058
:104D6600B7EF26F0C9EF26F0610E5118D8B4BEEFA2
:104D760026F0C0EF26F0C9EF26F0740E5118D8A41D
:104D8600C7EF26F0C9EF26F0FFEF28F0410E5024BA
:104D9600D96EDA6A000EDA2251C0DFFF502A010E00
:104DA6005064D8EF26F0DAEF26F0FFEF28F0410E38
:104DB6004118D8B4E1EF26F0E3EF26F0ECEF26F049
:104DC600610E4118D8A4EAEF26F0ECEF26F002EFC8
:104DD60027F0540E4218D8B4F3EF26F0F5EF26F07C
:104DE600FEEF26F0740E4218D8A4FCEF26F0FEEF74
:104DF60026F002EF27F0010E4C6EFFEF28F0020EB0
:104E0600406EFFEF28F0200E5118D8A40DEF27F0C2
:104E16000FEF27F015EF27F0020E4C6E000E4F6EC7
:104E2600FFEF28F0080E50641BEF27F01DEF27F068
:104E3600C8EF27F0410E4118D8B424EF27F026EF2B
:104E460027F02FEF27F0610E4118D8A42DEF27F099
:104E56002FEF27F0C8EF27F0540E4218D8B436EFDC
:104E660027F038EF27F041EF27F0740E4218D8A448
:104E76003FEF27F041EF27F0C8EF27F0430E431826
:104E8600D8B448EF27F04AEF27F053EF27F0630E28
:104E96004318D8A451EF27F053EF27F0C8EF27F0B7
:104EA600530E4418D8B45AEF27F05CEF27F065EF9D
:104EB60027F0730E4418D8A463EF27F065EF27F0A8
:104EC600C8EF27F04D0E4518D8B46CEF27F06EEFFB
:104ED60027F077EF27F06D0E4518D8A475EF27F069
:104EE60077EF27F0C8EF27F04F0E4618D8B47EEFBD
:104EF60027F080EF27F089EF27F06F0E4618D8A429
:104F060087EF27F089EF27F0C8EF27F0440E471800
:104F1600D8B490EF27F092EF27F09BEF27F0640EBE
:104F26004718D8A499EF27F09BEF27F0C8EF27F092
:104F3600450E4818D8B4A2EF27F0A4EF27F0ADEF3E
:104F460027F0650E4818D8A4ABEF27F0ADEF27F091
:104F5600C8EF27F04C0E4918D8B4B4EF27F0B6EFD7
:104F660027F0BFEF27F06C0E4918D8A4BDEF27F045
:104F7600BFEF27F0C8EF27F0020E4C6E000E4F6E03
:104F860051C020F04F2AFFEF28F00D0E5118D8B46B
:104F9600CFEF27F0D1EF27F0DAEF27F00A0E5118FE
:104FA600D8A4D8EF27F0DAEF27F0DEEF27F0030ECC
:104FB6004C6EFFEF28F00A0E5064E4EF27F0E6EFA0
:104FC60027F0E8EF27F0000E506E410E5024D96E00
:104FD600DA6A000EDA2251C0DFFF502AFFEF28F00E
:104FE6000D0E5118D8B4FAEF27F0FCEF27F0DAEFE0
:104FF60027F00A0E5118D8A403EF28F005EF28F081
:1050060007EF28F0DAEF27F01F0E4F640DEF28F0B8
:105016000FEF28F011EF28F0000E4F6E200E4F24F0
:10502600D96EDA6A000EDA2251C0DFFFC5EF27F02B
:10503600000E4D6E410E146E000E156E4D0E166E60
:10504600000E176E94EC58F04E6E4EBE2DEF28F003
:105056002FEF28F0E9EF28F01DC0D9FF1EC0DAFFB8
:105066004DC0DFFF4E500D0DFB0EF324F66E200EE5
:10507600F420F76E20EE03F01D50D9261E50DA22DA
:105086000800F5CFDFFF4E500D0D0C0EF326000E77
:10509600F422FB0EF324F66E200EF420F76E20EEBB
:1050A600B0F01D50D9261E50DA220800F5CFDFFFDA
:1050B600040E1D24016E000E1E20026E410E036EAC
:1050C600000E046E76EC5DF0CDEF28F020EE0FF0CA
:1050D6001D50D9261E50DA22000EDF6EE6EF28F0AC
:1050E600100E1D24026E000E1E20036E200E046E8E
:1050F600000E056E94EC5EF020EE0FF01D50D926E2
:105106001E50DA22010EDF6EE6EF28F0100E1D2487
:10511600026E000E1E20036E200E046E000E056E3B
:1051260094EC5EF002500310D8A49CEF28F0A0EF98
:1051360028F01F6A1F2AA1EF28F01F6A20EE0FF041
:105146001D50D9261E50DA221FC0DFFFE6EF28F0D9
:10515600100E1D24016E000E1E20026E200E036E20
:10516600000E046E76EC5DF001500210D8A4BEEF7E
:1051760028F0C2EF28F01F6A1F2AC3EF28F01F6A23
:1051860020EE0FF01D50D9261E50DA221FC0DFFF79
:10519600E6EF28F020EEB0F01D50D9261E50DA2298
:1051A600DF50000AD8B469EF28F0010AD8B473EFCB
:1051B60028F0030AD8B489EF28F0010AD8B4ABEF77
:1051C60028F0E6EF28F0010E12EF29F0020E12EF9A
:1051D60029F04C50000AD8B4A5EF26F0010AD8B43D
:1051E60006EF27F0030AD8B4F3EF27F0010AD8B484
:1051F6001BEF28F0FFEF28F05150D8B405EF29F047
:1052060007EF29F009EF29F01B4A1C2A5150D8A4B0
:105216000FEF29F011EF29F09DEF26F04050120014
:105226002A50800B336E2A502A24356E29AE1EEF83
:1052360029F020EF29F021EF29F035803550D8B438
:1052460027EF29F029EF29F03EEF29F03528D8A4D9
:105256002FEF29F031EF29F039EF29F0000E276EF4
:10526600000E286E000E296E000E2A6E298E000E84
:105276002A6E46EF29F0000E276E000E286E000EED
:10528600296E000E2A6E2E50800B346E3350341861
:10529600D8B450EF29F052EF29F053EF29F0338CB0
:1052A6002E502E24346E2DAE5BEF29F05DEF29F0E3
:1052B6005EEF29F034803450D8B464EF29F066EFFD
:1052C60029F07BEF29F03428D8A46CEF29F06EEF93
:1052D60029F076EF29F0000E2B6E000E2C6E000ED4
:1052E6002D6E000E2E6E2D8E000E2E6E83EF29F083
:1052F600000E2B6E000E2C6E000E2D6E000E2E6E06
:105306003550345CD8B08AEF29F08CEF29F0B3EF32
:1053160029F033AC91EF29F093EF29F095EF29F0BE
:10532600800E331A35C036F034C035F036C034F04E
:1053360027C036F02BC027F036C02BF028C036F039
:105346002CC028F036C02CF029C036F02DC029F02C
:1053560036C02DF02AC036F02EC02AF036C02EF008
:10536600000E366E355034C02FF0306A2F5E000EB8
:10537600305A30BEC8EF29F0305009E11A0E2F5CC2
:10538600D8A0C8EF29F0CAEF29F001EF2AF027507C
:10539600281029102A10D8A4D3EF29F0D6EF29F027
:1053A600010ED7EF29F0000E366E000E276E000EA6
:1053B600286E000E296E000E2A6E34C035F00AEFF4
:1053C6002AF036A0E9EF29F0EBEF29F0F1EF29F00A
:1053D600D89036300109366EF3EF29F0D890363280
:1053E60027A0F8EF29F0FAEF29F0FBEF29F0368E27
:1053F6002A342A32293228322732352A3450355C6B
:10540600D8A008EF2AF00AEF2AF0E4EF29F033BC1F
:105416000FEF2AF011EF2AF051EF2AF03550D8A4F9
:1054260017EF2AF019EF2AF023EF2AF0000E276E65
:10543600000E286E000E296E000E2A6E72EF2BF0FB
:105446002B5027262C5028222D5029222E502A2236
:105456002AA030EF2AF032EF2AF0DEEF2AF036A04B
:1054660037EF2AF039EF2AF03FEF2AF0D89036309E
:105476000109366E41EF2AF0D890363227A046EF62
:105486002AF048EF2AF049EF2AF0368E2A342A32DB
:10549600293228322732352ADEEF2AF02B50275CB4
:1054A6002C5028582D5029582A50800A2F6E2E50DD
:1054B600800A2F58D8B062EF2AF064EF2AF08FEFF7
:1054C6002AF027502B5C2F6E28502C58306E29500E
:1054D6002D58316E2A502E58326EFF0E2F24276E0D
:1054E600FF0E3020286EFF0E3120296EFF0E32206F
:1054F6002A6E800E331A366C3650D8A485EF2AF001
:1055060087EF2AF097EF2AF0010E2726000E2822B1
:1055160029222A2297EF2AF02B50275E2C50285A50
:105526002D50295A2E502A5A2750281029102A1051
:10553600D8A4A0EF2AF0A2EF2AF0D7EF2AF036502F
:10554600D8A4A8EF2AF0AAEF2AF0D7EF2AF0000E87
:10555600276E000E286E000E296E000E2A6E72EF60
:105566002BF0D8902736283629362A3636AEBEEFA7
:105576002AF0C0EF2AF0C1EF2AF0278036A0C6EF46
:105586002AF0C8EF2AF0CCEF2AF0D8803636CEEFD4
:105596002AF0D89036363550D8B4D4EF2AF0D6EF64
:1055A6002AF0D7EF2AF0350629AEDCEF2AF0DEEF37
:1055B6002AF0B4EF2AF0000E346E36AEE5EF2AF08C
:1055C600E7EF2AF0FFEF2AF036C02FF07F0E2F16F6
:1055D600D8B4F0EF2AF0F2EF2AF0F6EF2AF0010E37
:1055E600346EFFEF2AF027A0FBEF2AF0FDEF2AF03A
:1055F600FFEF2AF0F2EF2AF03450D8B405EF2BF083
:1056060007EF2BF032EF2BF0010E2726000E282293
:1056160029222A222AA012EF2BF014EF2BF032EFC8
:105626002BF027C02FF028C030F029C031F02AC057
:1056360032F032343232313230322F322FC027F04C
:1056460030C028F031C029F032C02AF03528D8B44D
:105656002FEF2BF031EF2BF032EF2BF0352A3528D8
:10566600D8B438EF2BF03AEF2BF042EF2BF0355051
:10567600D8A440EF2BF042EF2BF054EF2BF0000EA6
:10568600276E000E286E000E296E000E2A6E35500B
:10569600D8A450EF2BF052EF2BF054EF2BF0000E66
:1056A600336E35A059EF2BF05BEF2BF05EEF2BF04E
:1056B600298E5FEF2BF0299ED89035302A6E33AEB7
:1056C60067EF2BF069EF2BF06AEF2BF02A8E27C0DD
:1056D60027F028C028F029C029F02AC02AF0120095
:1056E6004650800B4F6E46504624516E45AE7EEFB7
:1056F6002BF080EF2BF081EF2BF051805150D8B476
:1057060087EF2BF089EF2BF09CEF2BF05128D8A4D4
:105716008FEF2BF091EF2BF099EF2BF0000E436EED
:10572600000E446E000E456E000E466E458EA4EFCA
:105736002BF0000E436E000E446E000E456E000EFA
:10574600466E4A50800B4F1A4A504A24506E49AE54
:10575600AFEF2BF0B1EF2BF0B2EF2BF050805050A3
:10576600D8B4B8EF2BF0BAEF2BF0CDEF2BF05028D2
:10577600D8A4C0EF2BF0C2EF2BF0CAEF2BF0000E2F
:10578600476E000E486E000E496E000E4A6E498E38
:10579600D5EF2BF0000E476E000E486E000E496ED8
:1057A600000E4A6E5050D8B4DBEF2BF0DDEF2BF035
:1057B600E5EF2BF05150D8A4E3EF2BF0E5EF2BF0FB
:1057C600EFEF2BF0000E436E000E446E000E456E9A
:1057D600000E466E87EF2DF049504302F3CF5AF084
:1057E600F4CF5BF05A50526E536A546A556A5B5056
:1057F600566E576A586A596A48504402F3CF5AF0AF
:10580600F4CF5BF05A505226000E532254225522F2
:105816005B505626000E5722582259224750450201
:10582600F3CF5AF0F4CF5BF05A505226000E5322B3
:10583600542255225B505626000E572258225922D2
:1058460054C055F053C054F052C053F0526A4750FA
:105856004402F3CF5AF0F4CF5BF05A5052265B5015
:105866005322000E5422000E552248504302F3CF15
:105876005AF0F4CF5BF05A5052265B505322000E7A
:105886005422000E552254C055F053C054F052C055
:1058960053F0526A47504302F3CF5AF0F4CF5BF00D
:1058A6005A5052265B505322000E5422000E5522A7
:1058B60049504402F3CF5AF0F4CF5BF05A505626C3
:1058C6005B505722000E5822000E592248504502BE
:1058D600F3CF5AF0F4CF5BF05A5056265B5057225E
:1058E600000E5822000E592249504502F3CF5AF0B5
:1058F600F4CF5BF05A504B6E5B504C6E4D6A4E6A5D
:105906004DC04EF04CC04DF04BC04CF04B6A4B5066
:1059160056264C5057224D5058224E50592252C0AE
:105926004BF053C04CF054C04DF055C04EF0190E1C
:10593600A2EF2CF0D8904E324D324C324B32E82E3C
:105946009DEF2CF04B5056264C5057224D50582266
:105956004E50592254C055F053C054F052C053F023
:10596600526A505051C04BF04C6A4B26000E4C22E6
:10597600820E4B245A6EFF0E4C205B6ED8EF2CF035
:10598600D890563657365836593655AECDEF2CF098
:10599600CFEF2CF0D0EF2CF05680D89052365336FD
:1059A600543655365A06D8A05B0658AEDDEF2CF0B5
:1059B600DFEF2CF0C3EF2CF0000E506E55AEE6EF85
:1059C6002CF0E8EF2CF00CEF2DF0FF0E52144B6E7E
:1059D600FF0E53144C6EFF0E54144D6E7F0E55146D
:1059E6004E6E4B504C104D104E10D8B4FDEF2CF0AF
:1059F600FFEF2CF003EF2DF0010E506E0CEF2DF0A3
:105A060056A008EF2DF00AEF2DF00CEF2DF0FFEF6A
:105A16002CF05050D8B412EF2DF014EF2DF038EFD3
:105A26002DF0010E5626000E57225822592259A053
:105A36001FEF2DF021EF2DF038EF2DF056C04BF073
:105A460057C04CF058C04DF059C04EF04E344E324F
:105A56004D324C324B324BC056F04CC057F04DC015
:105A660058F04EC059F05A4A5B2A5BBE43EF2DF000
:105A76005B5008E15A28D8A043EF2DF045EF2DF0F2
:105A86004FEF2DF0000E566E000E576E800E586EBC
:105A96007F0E596E7DEF2DF05BBE5CEF2DF05B50F7
:105AA60006E15A04D8B05AEF2DF05CEF2DF068EFFE
:105AB6002DF0000E566E000E576E000E586E000E3C
:105AC600596E000E4F6E7DEF2DF05AC051F0FF0E4D
:105AD6005616FF0E57167F0E5816000E591651A071
:105AE60077EF2DF079EF2DF07AEF2DF0588ED890D4
:105AF6005130596E4F50591256C043F057C044F0BA
:105B060058C045F059C046F012000001686F000108
:105B160068BF92EF2DF090EF2DF095EF2EF0686DA7
:105B26006851800A120FD8A09BEF2DF09DEF2DF043
:105B360028EF2EF0000E0A6E0A0E096E000E046E95
:105B4600640E036E6851016E026A01BE0206F9EC2C
:105B560059F001C007F002C008F0FDEC55F0090E3F
:105B660007260750040DBF0EF324F66E200EF42010
:105B7600F76E0900F5CF47F00900F5CF48F00900A8
:105B8600F5CF49F00A00F5CF4AF0000E0A6E640E12
:105B9600096E00016851076E086A07BE0806FDEC2B
:105BA60055F0120E07260750040DBF0EF324F66EAD
:105BB600200EF420F76E0900F5CF43F00900F5CF6B
:105BC60044F00900F5CF45F00A00F5CF46F073EC36
:105BD6002BF043C064F044C065F045C066F046C093
:105BE60067F064C043F065C044F066C045F067C026
:105BF60046F0000E046E0A0E036E00016851016E37
:105C0600026A01BE0206F9EC59F00150040DBF0EFE
:105C1600F324F66E200EF420F76E0900F5CF47F058
:105C26000900F5CF48F00900F5CF49F00A00F5CF95
:105C36004AF073EC2BF043C060F044C061F045C0FD
:105C460062F046C063F095EF2FF06851800A750F39
:105C5600D8A030EF2EF032EF2EF07FEF2EF0000EB0
:105C66000A6E0A0E096E6851076E086A07BE0806B4
:105C7600FDEC55F0090E07260750040DBF0EF32460
:105C8600F66E200EF420F76E0900F5CF43F00900FA
:105C9600F5CF44F00900F5CF45F00A00F5CF46F000
:105CA600000E046E0A0E036E00016851016E026A50
:105CB60001BE0206F9EC59F00150040DBF0EF324A3
:105CC600F66E200EF420F76E0900F5CF47F00900B6
:105CD600F5CF48F00900F5CF49F00A00F5CF4AF0B4
:105CE60073EC2BF043C060F044C061F045C062F035
:105CF60046C063F095EF2FF06851040DBF0EF324F4
:105D0600F66E200EF420F76E0900F5CF60F009005C
:105D1600F5CF61F00900F5CF62F00A00F5CF63F028
:105D260095EF2FF06851800A120FD8A09DEF2EF044
:105D36009FEF2EF02AEF2FF0000E0A6E0A0E096E64
:105D4600000E046E640E036E6851016E026A01BE97
:105D56000206F9EC59F001C007F002C008F0FDECAC
:105D660055F0090E07260750040D8B0EF324F66E28
:105D7600200EF420F76E0900F5CF47F00900F5CFA5
:105D860048F00900F5CF49F00A00F5CF4AF0000EB9
:105D96000A6E640E096E00016851076E086A07BE36
:105DA6000806FDEC55F0120E07260750040D8B0E63
:105DB600F324F66E200EF420F76E0900F5CF43F0BB
:105DC6000900F5CF44F00900F5CF45F00A00F5CFFC
:105DD60046F073EC2BF043C064F044C065F045C058
:105DE60066F046C067F064C043F065C044F066C024
:105DF60045F067C046F0000E046E0A0E036E000101
:105E06006851016E026A01BE0206F9EC59F00150B2
:105E1600040D8B0EF324F66E200EF420F76E0900A7
:105E2600F5CF47F00900F5CF48F00900F5CF49F066
:105E36000A00F5CF4AF073EC2BF043C060F044C083
:105E460061F045C062F046C063F095EF2FF06851EF
:105E5600800A750FD8A032EF2FF034EF2FF081EFC4
:105E66002FF0000E0A6E0A0E096E6851076E086A58
:105E760007BE0806FDEC55F0090E07260750040D6F
:105E86008B0EF324F66E200EF420F76E0900F5CF84
:105E960043F00900F5CF44F00900F5CF45F00A00BC
:105EA600F5CF46F0000E046E0A0E036E000168512F
:105EB600016E026A01BE0206F9EC59F00150040DAA
:105EC6008B0EF324F66E200EF420F76E0900F5CF44
:105ED60047F00900F5CF48F00900F5CF49F00A0070
:105EE600F5CF4AF073EC2BF043C060F044C061F08C
:105EF60045C062F046C063F095EF2FF06851040D7F
:105F06008B0EF324F66E200EF420F76E0900F5CF03
:105F160060F00900F5CF61F00900F5CF62F00A00E4
:105F2600F5CF63F0120000016351800B706F63516F
:105F36006325776F62AFA2EF2FF0A4EF2FF0A5EFE6
:105F46002FF077817751D8B4ABEF2FF0ADEF2FF06C
:105F5600C2EF2FF07729D8A4B3EF2FF0B5EF2FF0CB
:105F6600BDEF2FF0000E606F000E616F000E626FC6
:105F7600000E636F628F000E636FCAEF2FF0000E84
:105F8600606F000E616F000E626F000E636F6751E7
:105F9600800B701B67516725786F66AFD5EF2FF0C2
:105FA600D7EF2FF0D8EF2FF078817851D8B4DEEF05
:105FB6002FF0E0EF2FF0F5EF2FF07829D8A4E6EFD9
:105FC6002FF0E8EF2FF0F0EF2FF0000E646F000EC9
:105FD600656F000E666F000E676F668F000E676F47
:105FE600FDEF2FF0000E646F000E656F000E666FFA
:105FF600000E676F6451651166116711D8A406EF2C
:1060060030F008EF30F020EF30F0000E606F000E39
:10601600616F000E626F000E636F800E62137F0E5B
:1060260063137051631360C060F061C061F062C0B9
:1060360062F063C063F063EF31F07751D8A426EFC6
:1060460030F028EF30F032EF30F0000E606F000EC7
:10605600616F000E626F000E636F63EF31F078516F
:1060660077C068F0696B685F000E695B7F0E682514
:10607600716F000E6921726F60C06CF061C06DF0C7
:1060860062C06EF063C06FF0000E606F000E616F4D
:10609600000E626F000E636F000E736F000E746F5A
:1060A600000E756F000E766F000E786F93EF30F06E
:1060B6007851D8B461EF30F063EF30F07AEF30F01A
:1060C600D8906C376D376E376F37D8906037613739
:1060D6006237633776AF72EF30F074EF30F075EFFA
:1060E60030F06081D89073377437753776376451DE
:1060F6006C5D65516D5966516E5967516F59D8A0DF
:1061060087EF30F089EF30F092EF30F0768D645102
:106116006C5F65516D5B66516E5B67516F5B782B8B
:10612600190E786599EF30F09BEF30F05BEF30F0A9
:106136006C516D116E116F11D8B4A4EF30F0A6EF4B
:1061460030F0BEEF30F07381BEEF30F0D89060379C
:1061560061376237633776AFB3EF30F0B5EF30F0C3
:10616600B6EF30F06081D89073377437753776376D
:106176007107D8A0720762AFC3EF30F0C5EF30F0F9
:10618600A9EF30F0000E786F76AFCCEF30F0CEEF9F
:1061960030F0F2EF30F0FF0E7315686FFF0E7415D6
:1061A600696FFF0E75156A6F7F0E76156B6F6851F6
:1061B60069116A116B11D8B4E3EF30F0E5EF30F0F6
:1061C600E9EF30F0010E786FF2EF30F060A1EEEFFC
:1061D60030F0F0EF30F0F2EF30F0E5EF30F07851DC
:1061E600D8B4F8EF30F0FAEF30F01EEF31F0010ED0
:1061F6006027000E61236223632363A105EF31F05C
:1062060007EF31F01EEF31F060C068F061C069F051
:1062160062C06AF063C06BF06B356B336A33693307
:10622600683368C060F069C061F06AC062F06BC034
:1062360063F0714B722B72BF29EF31F0725108E196
:106246007129D8A029EF31F02BEF31F036EF31F07C
:10625600000E726F7169000E606F000E616F000EA6
:10626600626F000E636F72BF43EF31F0725106E149
:106276007105D8B041EF31F043EF31F051EF31F015
:10628600000E726F000E716F000E606F000E616F70
:10629600000E626F000E636F000E706F71C077F0B4
:1062A60077A158EF31F05AEF31F05DEF31F0628FA0
:1062B6005EEF31F0629FD8907731636F14EF30F064
:1062C600120004013205D8A46BEF31F06DEF31F006
:1062D6008BEF31F030511F0B0009D8A475EF31F068
:1062E60077EF31F08BEF31F00001B78F030E040129
:1062F6003119D8A481EF31F083EF31F088EF31F016
:10630600010E0001DF6F8BEF31F0000E0001DF6F31
:1063160004013251D8A492EF31F094EF31F014EF2A
:1063260033F030511F0B020AD8A49CEF31F09EEFD8
:1063360031F014EF33F034510F0B0009D8B4A6EF47
:1063460031F0A8EF31F014EF33F034510F0B156E26
:10635600030E1560B1EF31F0B3EF31F014EF33F007
:10636600200E0001E219D8A4BBEF31F0BDEF31F0E9
:1063760014EF33F0B78F040134BFC4EF31F0C6EF2A
:1063860031F0E3EF31F034510F0B156E1550020D5D
:10639600460EF324D96E010EF420DA6EDECF1AF023
:1063A600DDCF1BF034510F0B156E166A7A0E1524CD
:1063B600D96E010E1620DA6EDF50196EFEEF31F03F
:1063C60034510F0B156E1550020DBA0EF324D96E0B
:1063D600000EF420DA6EDECF1AF0DDCF1BF034515A
:1063E6000F0B156E166A7D0E1524D96E010E16203A
:1063F600DA6EDF50196E19B003EF32F005EF32F0A6
:106406000DEF32F0FB0E1A141A6EFF0E1B141B6EE4
:1064160012EF32F0040E1A101A6E1B501B6E34BFA8
:1064260017EF32F019EF32F02AEF32F034510F0B3A
:10643600156E1550020D460EF324D96E010EF4208A
:10644600DA6E1AC0DEFF1BC0DDFF39EF32F03451C1
:106456000F0B156E1550020DBA0EF324D96E000EF1
:10646600F420DA6E1AC0DEFF1BC0DDFF030E311901
:10647600D8A440EF32F042EF32F07CEF32F01AC08F
:10648600D9FF1BC0DAFFDFAE4BEF32F04DEF32F033
:106496006EEF32F034BF52EF32F054EF32F062EF6B
:1064A60032F034510F0B156E166A7A0E1524D96E1A
:1064B600010E1620DA6E0101DF826EEF32F03451E2
:1064C6000F0B156E166A7D0E1524D96E010E162059
:1064D600DA6E0101DF821AC0D9FF1BC0DAFF000E97
:1064E600DB841AC0D9FF1BC0DAFF000EDB8E14EF67
:1064F60033F0040E1A181A6E1B501B6E1AC0D9FF01
:106506001BC0DAFFDFAE8AEF32F08CEF32F0A8EF75
:1065160032F01AC0D9FF1BC0DAFF7F0EDF161AC091
:10652600D9FF1BC0DAFF000EDB8C000E0E6E050EC7
:106536000D6E1AC00FF01BC010F0000E126E020E88
:10654600116EF7EC5BF0AEEF32F01AC0D9FF1BC04C
:10655600DAFF000EDB8C040E1A181A6E1B501B6E27
:1065660019B2B8EF32F0BAEF32F0C5EF32F01AC016
:10657600D9FF1BC0DAFFDFAEC3EF32F0C5EF32F052
:10658600FDEF32F0040134BFCBEF32F0CDEF32F045
:10659600DBEF32F034510F0B156E166A7A0E1524A6
:1065A600D96E010E1620DA6E0101DF92E7EF32F0A6
:1065B60034510F0B156E166A7D0E1524D96E010E19
:1065C6001620DA6E0101DF921AC0D9FF1BC0DAFF6E
:1065D6003B0EDF16000E0E6E050E0D6E1AC00FF086
:1065E6001BC010F0000E126E020E116EF7EC5BF07F
:1065F60003EF33F01AC0D9FF1BC0DAFF3B0EDF16DC
:10660600040134510F0B156E166A260E1524176EEB
:106616000F0E1620186E17C0D9FF18C0DAFFFE0E2F
:10662600DF1612000DC001F00EC002F00FC003F01D
:1066360010C004F0CD0E056ECC0E066E4C0E076E25
:106646003E0E086E6CEC51F0D8B02CEF33F02EEF06
:1066560033F03FEF33F010BE33EF33F035EF33F066
:106666003FEF33F0000E116E000E126E000E136E29
:10667600000E146E84EF34F010BE46EF33F044EF94
:1066860033F069EF33F00DC001F00EC002F00FC019
:1066960003F010C004F0000E056E000E066E000E2C
:1066A600076EBF0E086E6CEC51F0D8A05DEF33F0AC
:1066B6005FEF33F069EF33F0000E116E000E126ECD
:1066C600000E136E000E146E84EF34F00DC001F050
:1066D6000EC002F00FC003F010C004F0000E056EED
:1066E600000E066E000E076EBF0E086E6CEC51F0C3
:1066F600D8B080EF33F082EF33F0A5EF33F00DC062
:1067060001F00EC002F00FC003F010C004F0000E3E
:10671600056E000E066E800E076EBF0E086E6CECE0
:1067260051F0D8A099EF33F09BEF33F0A5EF33F09B
:106736000A0E116ED70E126EA30E136E3C0E146E59
:1067460084EF34F00DC001F00EC002F00FC003F06C
:1067560010C004F0000E056E000E066E800E076E69
:10676600BF0E086E6CEC51F0D8B0BCEF33F0BEEF44
:1067760033F0E1EF33F00DC001F00EC002F00FC0B0
:1067860003F010C004F0000E056E000E066EA00E9B
:10679600076EC00E086E6CEC51F0D8A0D5EF33F042
:1067A600D7EF33F0E1EF33F08F0E116EC20E126E9B
:1067B600F50E136E3C0E146E84EF34F00DC001F02E
:1067C6000EC002F00FC003F010C004F0000E056EFC
:1067D600000E066EA00E076EC00E086E6CEC51F031
:1067E600D8B0F8EF33F0FAEF33F01DEF34F00DC008
:1067F60001F00EC002F00FC003F010C004F0000E4E
:10680600056E000E066E200E076EC10E086E6CEC4D
:1068160051F0D8A011EF34F013EF34F01DEF34F03F
:106826000A0E116ED70E126E230E136E3D0E146EE7
:1068360084EF34F00DC001F00EC002F00FC003F07B
:1068460010C004F0000E056E000E066E200E076ED8
:10685600C10E086E6CEC51F0D8B034EF34F036EF60
:1068660034F059EF34F00DC001F00EC002F00FC045
:1068760003F010C004F0000E056E000E066EF00E5A
:10688600076EC10E086E6CEC51F0D8A04DEF34F0D7
:106896004FEF34F059EF34F0CD0E116ECC0E126E70
:1068A6004C0E136E3D0E146E84EF34F00DC001F0E5
:1068B6000EC002F00FC003F010C004F0000E056E0B
:1068C600000E066EF00E076EC10E086E6CEC51F0EF
:1068D600D8B070EF34F072EF34F07CEF34F08F0EF6
:1068E600116EC20E126E750E136E3D0E146E84EF8F
:1068F60034F00DC011F00EC012F00FC013F010C02E
:1069060014F011C00DF012C00EF013C00FF014C039
:1069160010F01200000120EE04F07951D9267A51C8
:10692600DA22DECF60F0DECF61F0DECF62F0DECFBE
:1069360063F079C0D9FF7AC0DAFFDECF2BF0DECF65
:106946002CF0DECF2DF0DECF2EF020EE04F07951C4
:10695600D9267A51DA22DECF27F0DECF28F0DECF35
:1069660029F0DECF2AF013EC29F027C064F028C006
:1069760065F029C066F02AC067F096EC2FF000019A
:1069860020EE14F07951D9267A51DA2260C0DEFF62
:1069960061C0DEFF62C0DEFF63C0DEFF20EE14F0E2
:1069A6007951D9267A51DA22DECF47F0DECF48F088
:1069B600DECF49F0DECF4AF020EE10F07951D9262D
:1069C6007A51DA22DECF3BF0DECF3CF0DECF3DF06F
:1069D600DECF3EF07BC037F07CC038F07DC039F0AA
:1069E6007EC03AF008EC67F037C043F038C044F098
:1069F60039C045F03AC046F073EC2BF043C083F043
:106A060044C084F045C085F046C086F083C027F0B8
:106A160084C028F085C029F086C02AF0000120EE47
:106A260010F07951D9267A51DA22DECF2BF0DECF5B
:106A36002CF0DECF2DF0DECF2EF013EC29F0000186
:106A460020EE0CF07951D9267A51DA2227C0DEFFE2
:106A560028C0DEFF29C0DEFF2AC0DEFF20EE04F0DC
:106A66007951D9267A51DA22DECF47F0DECF48F0C7
:106A7600DECF49F0DECF4AF020EE14F07951D92668
:106A86007A51DA22DECF3BF0DECF3CF0DECF3DF0AE
:106A9600DECF3EF0000E376E000E386E800E396E79
:106AA6003F0E3A6E08EC67F037C043F038C044F04A
:106AB60039C045F03AC046F073EC2BF043C083F082
:106AC60044C084F045C085F046C086F0000120EE43
:106AD60008F07951D9267A51DA22DECF47F0DECF97
:106AE60048F0DECF49F0DECF4AF020EE0CF07951C7
:106AF600D9267A51DA22DECF3BF0DECF3CF0DECF6C
:106B06003DF0DECF3EF020EE10F07951D9267A51D5
:106B1600DA22DECF37F0DECF38F0DECF39F0DECF47
:106B26003AF008EC67F037C03FF038C040F039C0A3
:106B360041F03AC042F0E4EC66F03FC043F040C09A
:106B460044F041C045F042C046F073EC2BF043C020
:106B56007FF044C080F045C081F046C082F083C01B
:106B660027F084C028F085C029F086C02AF07FC0AF
:106B76002BF080C02CF081C02DF082C02EF013ECDB
:106B860029F0000120EE04F07951D9267A51DA2253
:106B960027C0DEFF28C0DEFF29C0DEFF2AC0DEFFD9
:106BA60020EE0CF07951D9267A51DA2210EE10F047
:106BB6007951E1267A51E222DECFE6FFDECFE6FF0B
:106BC600DECFE6FFDECFE6FF20EE0CF07951D926C8
:106BD6007A51DA22DECF79F0DECF7AF0DECF7BF0A3
:106BE600DECF7CF0120000016C6F6D0E00016C654B
:106BF600FFEF35F001EF36F0AEEF36F0000E476EE0
:106C0600000E486E000E496E3F0E4A6E000E0A6E6A
:106C1600640E096E6CC007F0086A0DEC61F0D8903E
:106C260007360836D89007360836480E0726000E6F
:106C36000822BF0E0724F66E200E0820F76E090004
:106C4600F5CF43F00900F5CF44F00900F5CF45F044
:106C56000A00F5CF46F073EC2BF043C068F044C051
:106C660069F045C06AF046C06BF0000E0A6E0A0E67
:106C7600096E000E046E640E036E6CC001F0026AAB
:106C860088EC63F001C007F002C008F00DEC61F07B
:106C9600D89007360836D89007360836240E0726C9
:106CA600000E0822BF0E0724F66E200E0820F76E8F
:106CB6000900F5CF47F00900F5CF48F00900F5CFF8
:106CC60049F00A00F5CF4AF068C043F069C044F0C5
:106CD6006AC045F06BC046F073EC2BF043C064F01D
:106CE60044C065F045C066F046C067F064C043F036
:106CF60065C044F066C045F067C046F0000E046EFD
:106D06000A0E036E6CC001F0026A88EC63F0D8903C
:106D160001360236D89001360236BF0E0124F66ED1
:106D2600200E0220F76E0900F5CF47F00900F5CFD7
:106D360048F00900F5CF49F00A00F5CF4AF073ECA8
:106D46002BF043C060F044C061F045C062F046C01D
:106D560063F048EF37F00A0E6C65B4EF36F0B6EF25
:106D660036F022EF37F0000E476E000E486E000E2A
:106D7600496E3F0E4A6E000E0A6E0A0E096E6CC010
:106D860007F0086A0DEC61F0D89007360836D890FF
:106D960007360836240E0726000E0822BF0E0724E3
:106DA600F66E200E0820F76E0900F5CF43F00900B5
:106DB600F5CF44F00900F5CF45F00A00F5CF46F0CF
:106DC60073EC2BF043C068F044C069F045C06AF02C
:106DD60046C06BF068C043F069C044F06AC045F035
:106DE6006BC046F0000E046E0A0E036E6CC001F016
:106DF600026A88EC63F0D89001360236D8900136E4
:106E06000236BF0E0124F66E200E0220F76E090030
:106E1600F5CF47F00900F5CF48F00900F5CF49F066
:106E26000A00F5CF4AF073EC2BF043C060F044C083
:106E360061F045C062F046C063F048EF37F06C5130
:106E4600040DBF0EF324F66E200EF420F76E090033
:106E5600F5CF43F00900F5CF44F00900F5CF45F032
:106E66000A00F5CF46F0000E476E000E486E000E83
:106E7600496E3F0E4A6E73EC2BF043C060F044C07F
:106E860061F045C062F046C063F012000001E251B5
:106E9600D8A450EF37F052EF37F06AEF37F0000E14
:106EA600656E000E0F01366F160E396F9F0E376F27
:106EB6007B0E366F60EF37F0658665A665EF37F0B7
:106EC60067EF37F05FEF37F0010E0001E26FE20582
:106ED600D8A470EF37F072EF37F083EF37F065BA6A
:106EE60077EF37F079EF37F083EF37F0000E626E09
:106EF600000E0F01366F36813689020E0001E26FF1
:106F060062A488EF37F08AEF37F095EF37F00F017C
:106F160036A590EF37F092EF37F095EF37F06294A1
:106F26002BEC67F065A29AEF37F09CEF37F09FEFF6
:106F360037F0A1988CEF38F062A0A4EF37F0A6EFF7
:106F460037F0B4EF37F00F0136A1ACEF37F0AEEF04
:106F560037F0B4EF37F032EC46F0040E0001E26F82
:106F6600629062A8B9EF37F0BBEF37F0C5EF37F0A4
:106F76000F0136A9C1EF37F0C3EF37F0C5EF37F091
:106F8600DAEC68F062ACCAEF37F0CCEF37F0F9EF25
:106F960037F00F0136ADD2EF37F0D4EF37F0E2EF2E
:106FA60037F0000E0E6E730E0D6E000E0F6E000E95
:106FB600106E000E126E010E116EF7EC5BF0629C05
:106FC6001FEC68F00001DB51D8B4ECEF37F0EEEFC0
:106FD60037F0EFEF37F0DB07DB51D8A4F5EF37F0EA
:106FE600F7EF37F0F9EF37F062EC53F062AAFEEFF5
:106FF60037F000EF38F00AEF38F00F0136AB06EF46
:1070060038F008EF38F00AEF38F0EBEC63F062A2E4
:107016000FEF38F011EF38F028EF38F00F0136A3F4
:1070260017EF38F019EF38F028EF38F07F0E0E6EB4
:107036000D68000E0F6E000E106E000E126E010E21
:10704600116EF7EC5BF0000E636E040E0001E26158
:107056002FEF38F031EF38F034EF38F0A1988CEF9D
:1070660038F00F0136A73AEF38F03CEF38F08BEFE7
:1070760038F0000E1D6E62A643EF38F045EF38F08B
:107086008BEF38F064CFFCF00001FC31E832E832D7
:107096000F0BDD6F6296FCB553EF38F055EF38F005
:1070A6005FEF38F07A0EDD25D96EDA6A010EDA2244
:1070B6000101DF7067EF38F07D0EDD25D96EDA6AE3
:1070C600010EDA220101DF700001DD51D8A46EEF56
:1070D60038F070EF38F074EF38F081EC57F082EF4B
:1070E60038F0000E0E6E720E0D6EFC0E0F6E000E58
:1070F600106E000E126E000E116EF7EC5BF01D2A7C
:10710600030E1D6489EF38F08BEF38F03EEF38F050
:10711600A1981200A6EF39F0D8EC65F00009D8B4B2
:1071260097EF38F099EF38F0A8EF38F0010E01012B
:10713600436F000E586F000E596F000E5A6F000E07
:107146005B6F010E406FC6EF39F0000E0101586FFC
:10715600000E596F000E5A6F000E5B6F1E0E426FC7
:10716600050E406F000E416FC6EF39F05B515A11A4
:10717600591109E1640E585DD8A0C4EF38F0C6EF86
:1071860038F0C6EF39F0100E821907E10E0E83199A
:10719600D8A4D0EF38F0D2EF38F0D8EF38F0000EA0
:1071A600836F010E826FDAEF38F0824B832B000E6D
:1071B600586F000E596F000E5A6F000E5B6F020E6D
:1071C600406FC6EF39F0E2EC5CF00101456F000E4E
:1071D600586F000E596F000E5A6F000E5B6F020E4D
:1071E600426F050E406F030E416FC6EF39F07BEC20
:1071F60045F00101446F000E586F000E596F000EE6
:107206005A6F000E5B6F040E406FC6EF39F04451A3
:10721600D8B410EF39F012EF39F04BEF39F000C166
:107226001CF101C11DF102C11EF103C11FF1000EC7
:107236000001856F030E866F1CC187F01DC188F0A3
:107246001EC189F01FC18AF0E5EC1CF004C120F1D3
:1072560005C121F106C122F107C123F19DC127F025
:107266009EC128F09FC129F0A0C12AF020C12BF0B1
:1072760021C12CF022C12DF023C12EF013EC29F0F0
:1072860027C020F128C021F129C022F12AC023F10C
:1072960001014551D8B452EF39F054EF39F064EF9B
:1072A60039F014C130F115C131F116C132F117C1EF
:1072B60033F118C134F119C135F11AC136F11BC1C8
:1072C60037F1000E586F000E596F000E5A6F000E00
:1072D6005B6F060E406FC6EF39F042C1A3F00001A6
:1072E600A46BA56BA66B010158510001A35D0101BA
:1072F60059510001A45901015A510001A559010132
:107306005B510001A659D8B08BEF39F08DEF39F0FB
:10731600C6EF39F0000E0101586F000E596F000ECE
:107326005A6F000E5B6F41C140F1C6EF39F0000E97
:10733600586F000E596F000E5A6F000E5B6F010EEC
:10734600406FC6EF39F001014051000AD8B48FEF03
:1073560038F0010AD8B4B9EF38F0030AD8B4E6EF2A
:1073660038F0010AD8B4FAEF38F0070AD8B40AEFB1
:1073760039F0010AD8B470EF39F0030AD8B49AEF9D
:1073860039F0C6EF39F01200000E0001856F000ECD
:10739600866F000E876F000E886F000E826F010EDB
:1073A600816F79C08BF07AC08CF0000E8A6F000E68
:1073B600896F000E846F000E836FF5EF39F08BC076
:1073C600D9FF8CC0DAFF2D0EDE18D8A4EDEF39F008
:1073D600EFEF39F0F1EF39F0816982698B4B8C2B35
:1073E600834B842B8BC0D9FF8CC0DAFF2D0EDE18A1
:1073F600D8B400EF3AF002EF3AF0E2EF39F08BC082
:10740600D9FF8CC0DAFF2B0EDE18D8B40DEF3AF098
:107416000FEF3AF0E2EF39F06EEF3AF08BC0D9FF9A
:107426008CC0DAFF2E0EDE18D8A41CEF3AF01EEF41
:107436003AF024EF3AF083C089F084C08AF069EF0D
:107446003AF0000E476E000E486E200E496E410E51
:107456004A6E85C043F086C044F087C045F088C0B8
:1074660046F073EC2BF043C027F044C028F045C02B
:1074760029F046C02AF0D00E00017D6FFF0E7E6F08
:107486008BC0D9FF8CC0DAFFDF507F6F806B7D51D8
:107496007F277E5180237FC019F080C01AF01B6AB7
:1074A6001C6A000EC1EC40F019C02BF01AC02CF07B
:1074B6001BC02DF01CC02EF013EC29F027C085F060
:1074C60028C086F029C087F02AC088F000018B4BBF
:1074D6008C2B834B842B8BC0D9FF8CC0DAFF2F0EED
:1074E600DF6478EF3AF07AEF3AF086EF3AF08BC045
:1074F600D9FF8CC0DAFF390EDF6484EF3AF086EFED
:107506003AF011EF3AF08BC0D9FF8CC0DAFF2E0E9D
:10751600DE18D8B491EF3AF093EF3AF011EF3AF063
:1075260089518A11D8B49AEF3AF09CEF3AF0D2EF2B
:107536003AF08951835D7D6F8A5184597E6FFF0EC3
:107546007D25896FFF0E7E218A6FC4EF3AF085C0D4
:1075560060F086C061F087C062F088C063F0000EFC
:10756600646F000E656F200E666F410E676F96ECB6
:107576002FF060C085F061C086F062C087F063C0FE
:1075860088F000018907D8A08A07892906E18A2997
:10759600D8A4D0EF3AF0D2EF3AF0AAEF3AF081C091
:1075A60019F082C01AF0000E1ABEFF0E1B6E1C6E7A
:1075B600010EC1EC40F019C043F01AC044F01BC0E4
:1075C60045F01CC046F085C047F086C048F087C02D
:1075D60049F088C04AF073EC2BF043C079F044C000
:1075E6007AF045C07BF046C07CF0120020EE0AF02F
:1075F6002850D9262950DA22010EDBBE0DEF3BF0CA
:10760600010EDB5009E1460EDE5CD8A00DEF3BF023
:107616000FEF3BF025EF3BF020EE0AF02850D9267D
:107626002950DA22010EDBBE23EF3BF0010EDB50C0
:1076360009E18B0EDE5CD8A023EF3BF025EF3BF093
:107646002BEF3BF0326833683468356806EF3CF060
:1076560020EE0AF02850D9262950DA22DECF2CF067
:10766600DDCF2DF06C0E2C24186E070E2D20196E12
:1076760020EE08F02850D9262950DA22DECF2EF047
:10768600DDCF2FF0010E2E241A6E000E2F201B6E5A
:1076960020EE06F02850D9262950DA22DECF1CF03B
:1076A600DDCF1DF022EC57F018C032F019C033F0D0
:1076B6001AC034F01BC035F0070E196EB20E186EE4
:1076C600000E1B6E010E1A6E000E1D6E010E1C6E54
:1076D60022EC57F01850325E1950335A1A50345A69
:1076E6001B50355A20EE04F02850D9262950DA22AC
:1076F600DECF2CF0DDCF2DF02CC02EF02DC02FF0DC
:10770600000E2FBEFF0E306E316E32C001F033C058
:1077160002F034C003F035C004F0180E056E000EFA
:10772600066E000E076E000E086E20EC62F02E50FC
:107736000124326E2F500220336E30500320346EF7
:1077460031500420356E20EE02F02850D9262950FB
:10775600DA22DECF2CF0DDCF2DF02CC02EF02DC09E
:107766002FF0000E2FBEFF0E306E316E32C001F0CC
:1077760033C002F034C003F035C004F03C0E056E91
:10778600000E066E000E076E000E086E20EC62F00C
:107796002E500124326E2F500220336E30500320BB
:1077A600346E31500420356E28C0D9FF29C0DAFF67
:1077B600DECF2CF0DDCF2DF02CC02EF02DC02FF01B
:1077C600000E2FBEFF0E306E316E32C001F033C098
:1077D60002F034C003F035C004F03C0E056E000E16
:1077E600066E000E076E000E086E20EC62F02E503C
:1077F6000124326E2F500220336E30500320346E37
:1078060031500420356E32C028F033C029F034C020
:107816002AF035C02BF01200076EC2EF3CF0000EC6
:107826000101546F000E556F800E566F3F0E576F55
:1078360001EF3DF0660E0101546F660E556F660E40
:10784600566F3F0E576F01EF3DF0CD0E0101546F9D
:10785600CC0E556F4C0E566F3F0E576F01EF3DF035
:10786600330E0101546F330E556F330E566F3F0EB4
:10787600576F01EF3DF09A0E0101546F990E556F47
:10788600190E566F3F0E576F01EF3DF0000E0101C6
:10789600546F000E556F000E566F3F0E576F01EF77
:1078A6003DF0CD0E0101546FCC0E556FCC0E566FC8
:1078B6003E0E576F01EF3DF0330E0101546F330E4C
:1078C600556FB30E566F3E0E576F01EF3DF09A0E91
:1078D6000101546F990E556F990E566F3E0E576FF4
:1078E60001EF3DF0000E0101546F000E556F800E42
:1078F600566F3E0E576F01EF3DF0CD0E0101546FEE
:10790600CC0E556F4C0E566F3E0E576F01EF3DF085
:10791600CD0E0101546FCC0E556FCC0E566F3D0E39
:10792600576F01EF3DF00A0E0101546FD70E556FE8
:10793600230E566F3C0E576F01EF3DF06F0E01019F
:10794600546F120E556F830E566F3A0E576F01EF36
:107956003DF0170E0101546FB70E556FD10E566FDD
:10796600380E576F01EF3DF0CD0E0101546FCC0E6E
:10797600556FCC0E566F3D0E576F01EF3DF0075019
:10798600010AD8B412EF3CF0030AD8B41DEF3CF05C
:10799600010AD8B428EF3CF0070AD8B433EF3CF01C
:1079A600010AD8B43EEF3CF0030AD8B449EF3CF0E4
:1079B600010AD8B454EF3CF00F0AD8B45FEF3CF09C
:1079C600010AD8B46AEF3CF0030AD8B475EF3CF06C
:1079D600010AD8B480EF3CF0070AD8B48BEF3CF02C
:1079E600010AD8B496EF3CF0030AD8B4A1EF3CF0F4
:1079F600010AD8B4ACEF3CF0B7EF3CF0D90E016EFB
:107A0600010E026E54C103F055C104F056C105F0D3
:107A160057C106F0C2EC6AF01200020E0001D2193C
:107A2600D8B418EF3DF01AEF3DF0F0EF3DF00CEF53
:107A36003EF00CEF3EF0010E0501006F0CEF3EF03C
:107A4600400E016E040E026E64EC5FF00001B36F2F
:107A5600B351D8B431EF3DF033EF3DF00CEF3EF0CB
:107A66000D0EB319D8B43AEF3DF03CEF3DF045EFBB
:107A76003DF00A0EB319D8A443EF3DF045EF3DF0B3
:107A86007EEF3DF0020E050141654CEF3DF04EEFF5
:107A96003DF070EF3DF0010E4125D96EDA6A050E14
:107AA600DA22B3C0DFFF412B000E416F020E006FDA
:107AB6000001C251D8A462EF3DF064EF3DF01CEF27
:107AC6003DF0E651D8A46AEF3DF06CEF3DF01CEFB7
:107AD6003DF0050EC06F0CEF3EF0000E416F010E3B
