:040000003EEF00F0DF
:060008005182CEEF6BF007
:100018005180D8CF07F0E8CF08F0E0CF09F0E1CF62
:100028000AF0E2CF0BF0D9CF0CF0DACF0DF00E0EBC
:10003800026E9AEC6EF00009D8B40CD00101530599
:10004800D8A408D0600E016E040E026E0EC003F034
:1000580060EC67F00DC0DAFF0CC0D9FF0BC0E2FFFF
:100068000AC0E1FF09C0E0FF08C0E8FF07C0D8FFE9
:080078005190100095EF53F0C8
:102006000D60000000803F000020410000C8420033
:10201600007A4400401C460050C34700247449809F
:1020260096184B20BCBE4C286B6E4EF9021550EC30
:1020360078AD60CAF249710000803FCDCCCC3D0A34
:10204600D7233C6F12833A17B7D138ACC52737BDB3
:1020560037863595BFD63377CC2B325F708930FF04
:10206600E6DB2E08E53C1E6042A20DC01200008091
:1020760025000040380000004B00000096000000DC
:10208600E100003523C722C305640F1E3CC8842225
:10209600014154435A00000000000000000541546D
:1020A600434425000000000000000641544351252A
:1020B60000000000000000074154434825000000CE
:1020C600000000000841544355562500000000005A
:1020D60000094154434D4F44454C00000000024165
:1020E6005443564552000000000000034154435239
:1020F600535400000000000104415443424C525323
:1021060054000000010A415443534D4F44454C00CE
:1021160000020B4154434654525354000000010C34
:10212600415443534F4E0000000000020D415443FA
:1021360049534D5354000000020E4154434D4F4441
:102146004348000000020F4154434D535449440094
:1021560000000210415443524C594E4F00000002F9
:102166001141544350504D4D415800000212415404
:1021760043524C59444C59000002134154434D4FAD
:1021860044494400000002144154434D4F44425216
:1021960000000002154154434D4F445357000000C0
:1021A60002164154434D4F44544F0000000219415A
:1021B6005443434150250000000002174154434F49
:1021C6004646472500000002184154434F464654F0
:1021D60025000000021A41544353494E4D25000084
:1021E60000021B415443534E414D45250000031C3C
:1021F60041544343414C2500000000021D41544315
:10220600435A522500000000011E415443435350D7
:102216002500000000021F4154434D4F4445250050
:102226000000022041544354434D50250000000253
:10223600224154434625000000000000012141547C
:102246004343250000000000000123415443574941
:102256004E250000000002254154434558544D25A3
:102266000000000224415443555345442500000014
:102276000226415443424C44544D000000000902DA
:102286004300020100C032090400000102020100FD
:102296000524001001042402020524060001052479
:1022A6000100010705810308000209040100020A72
:1022B60000000007050202400000070582024000F8
:1022C600003403440065006B00690073007400204D
:1022D6000043006F002E002C0020004C00740064A8
:1022E600002E0000000000000000000000000000BA
:1022F6000000000000010000000A00000064000069
:1023060000E803000010270000A086010040420FED
:10231600008096980000E1F50500CA9A3B1201007C
:102326000202000008D8040A0000010102000104AC
:10233600030904494E495449414C495A494E472ECE
:102346002E2E0D0A002D2D2D2D2C2D2D2D2D2C2D27
:102356002D2D2D00524E34303054322D47535F35DB
:102366007638004A616E2032302032303232003107
:10237600313A32383A3230004E48332D313030302F
:10238600004E48332D313030004832532D35300061
:09239600252E326600454F0000BF
:1023A000CDC0D9FFCEC0DAFFDF500201FC6FFD6B5C
:1023B000FF0EFC25FF0EFD21800BD8A40ED0CDC052
:1023C000D9FFCEC0DAFFDF50FC6FFF0EFC25030102
:1023D000E96FEA6BFF0EEA2305D0000E0301EA6FF6
:1023E000000EE96FE9C3F0F3080E0F6E020E106ED7
:1023F000030E0001CD25116E000ECE21126E4CECA5
:1024000063F00F500301F16F080EF125D96EDA6AFF
:10241000020EDA22200EDF6EF12B050E0001CF61D5
:1024200007D0390E166E230E176EDFEC6DF012001A
:1024300020EE0EF0CD51D926CE51DA22DF50D8B49D
:102440002AEF18F020EE02F0CD51D926CE51DA2233
:10245000090EDF640FD020EE02F0CD51D926CE5107
:10246000DA22170EDF6006D0520E1F6E010E206EAC
:10247000B9EC6DF0000120EE02F0CD51D926CE511D
:10248000DA22160EDF642AEF18F020EE02F0CD51AA
:10249000D926CE51DA22260EDF602AEF18F020EE80
:1024A00001F0CD51D926CE51DA22DF50D8A42AEF3F
:1024B00018F00301F0513E0D700EF3240F6E010E63
:1024C000F420106EF0513E0D270EF324116E030E12
:1024D000F420126E000E146E3E0E136EA6EC68F021
:1024E0002AEF18F0080E0301F125D96EDA6A020E00
:1024F000DA224F0EDF6EF12B080EF125D96EDA6A63
:10250000020EDA224B0ED7D3080E0301F1250F6E0F
:10251000106A020E10225A0E116E230E126E4CEC2F
:1025200063F058D1000E0301EF6F010EEF6502D08A
:10253000A6EF18F0EF51040DF3CFFCF2F4CFFDF24B
:10254000F0510C0D000E0201FE6F010EFF6FF350F3
:10255000FE27F450FF23FC51FE25D96EFD51FF21CB
:10256000DA6EDECF91F0DECF92F0DECF93F0DECFE9
:1025700094F0B00E0001956F230E966F740E976F56
:10258000C90E986F32EC5FF0D8A00FD0080E03018F
:10259000F1250F6E106A020E1022550E116E230ED9
:1025A000126E4CEC63F00F502BD00301EF51040D71
:1025B000F3CFFCF2F4CFFDF2F0510C0D000E02014E
:1025C000FE6F010EFF6FF350FE27F450FF23FC5106
:1025D000FE25D96EFD51FF21DA6EDECFC3F0DECFCE
:1025E000C4F0DECFC5F0DECFC6F0080E0301F12542
:1025F0000001C76FC86B020EC823E9EC68F0C35135
:102600000301F127EF05D8B409D0080EF125D96EE2
:10261000DA6A020EDA222C0EDF6EF12BEF2B85D751
:102620000301F051D60FD96EDA6ADE04D8A40BD1BB
:10263000F0513E0D7A0EF324D96E010EF420DA6EBD
:10264000DECF64F0DECF65F0DECF66F0DECF67F080
:10265000F0513E0D7E0EF324D96E010EF420DA6E99
:10266000DECF60F0DECF61F0DECF62F0DECF63F070
:102670001BEC68F060C091F061C092F062C093F012
:1026800063C094F0000E0001956F000E966F000E6F
:10269000976F000E986F32EC5FF0D8B03CD003011A
:1026A000F0513E0D820EF324D96E010EF420DA6E45
:1026B000DECF91F0DECF92F0DECF93F0DECF94F05C
:1026C000000E0001956F000E966F000E976F000EC2
:1026D000986F32EC5FF0D8B01ED00301F0510C0DB2
:1026E000040EF324D96E010EF420DA6EDECF91F0E1
:1026F000DECF92F0DECF93F0DECF94F0B00E00018B
:10270000956F230E966F740E976FC90E986F32EC0B
:102710005FF0D8A00FD0080E0301F1250F6E106AEC
:10272000020E1022550E116E230E126E4CEC63F049
:102730000F501BD00301F0510C0D040EF324D96E81
:10274000010EF420DA6EDECFC3F0DECFC4F0DECFB0
:10275000C5F0DECFC6F0080EF1250001C76FC86BCB
:10276000020EC823E9EC68F0C3510301F127080EFB
:10277000F125D96EDA6A020EDA222C0EDF6EF12B09
:10278000F0510C0D080EF324D96E010EF420DA6E10
:10279000DECF91F0DECF92F0DECF93F0DECF94F07B
:1027A000B00E0001956F230E966F740E976FC90ED1
:1027B000986F32EC5FF0D8A00FD0080E0301F1251E
:1027C0000F6E106A020E1022550E116E230E126E3D
:1027D0004CEC63F00F5002D10301F0510C0D080EC8
:1027E000F324D96E010EF420DA6EDECFEBF3DECFE8
:1027F000ECF3DECFEDF3DECFEEF3F0513E0D780ECD
:10280000F324D96E010EF420DA6EDE04D8A407D0CA
:10281000EB0E00017D6F030E7E6F29EC64F0EBC3BD
:10282000C3F0ECC3C4F0EDC3C5F0EEC3C6F0080EB0
:102830000301F1250001C76FC86B020EC823E9EC44
:1028400068F0C351CBD0080EF1250F6E106A020E4E
:102850001022500E116E230E126E4CEC63F0BAD79C
:10286000F0C3CBF0F1C3CCF0000EC4EC2AF007D0DB
:10287000F0C3CBF0F1C3CCF0010EC4EC2AF0F16F41
:10288000A6EF18F00301F107000E0301EF6F070E2A
:10289000EF6502D0A6EF18F0680EEF25D96EDA6A60
:1028A000010EDA22080EF125E16EE26A020EE22242
:1028B000DFCFE7FFF12BEF2BEAD720EE01F0CD5170
:1028C000D926CE51DA22DF50D8B412D0080E030137
:1028D000F125D96EDA6A020EDA224F0EDF6EF12B85
:1028E000080EF125D96EDA6A020EDA224B0E23D0D9
:1028F000080E0301F125D96EDA6A020EDA22460EBD
:10290000DF6EF12B080EF125D96EDA6A020EDA229B
:10291000410EDF6EF12B080EF125D96EDA6A020E38
:10292000DA22490EDF6EF12B080EF125D96EDA6A34
:10293000020EDA224C0EDF6EF12BAFEC5AF0A6EF4E
:1029400018F0010153511D6E1E6A1F6A206A080E9D
:102950000301F125216E226A020E22225DEC49F06C
:102960001D500301F127000120EE01F0CD51D926C1
:10297000CE51DA22DF50D8B4E9D3000E0101246F22
:10298000E5D3010154511D6E1E6A1F6A206A080EAC
:102990000301F125216E226A020E22225DEC49F02C
:1029A0001D500301F127000120EE01F0CD51D92681
:1029B000CE51DA22DF50D8A4E0D7C8D30101555157
:1029C0001D6E1E6A1F6A206A080E0301F125216E22
:1029D000226A020E22225DEC49F03AD30301F1276C
:1029E000B5D3010156511D6E1E6A1F6A206A080E7A
:1029F0000301F125216E226A020E22225DEC49F0CC
:102A000027D3010157511D6E1E6A1F6A206A080EE6
:102A10000301F125216E226A020E22225DEC49F0AB
:102A200017D358C1C3F059C1C4F05AC1C5F05BC136
:102A3000C6F0080E0301F1250001C76FC86B020E36
:102A4000C823E9EC68F0FDD65CC11DF05DC11EF045
:102A50005EC11FF05FC120F0080E0301F125216E59
:102A6000226A020E22225DEC49F0F2D2010160518D
:102A70001D6E1E6A1F6A206A080E0301F125216E71
:102A8000226A020E22225DEC49F01D500301F1275B
:102A9000000120EE01F0CD51D926CE51DA22DF50CF
:102AA000D8B454D30101605177EC6FF04FD30101DA
:102AB00061511D6E1E6A1F6A206A080E0301F1250E
:102AC000216E226A020E22225DEC49F069D70101D3
:102AD00062511D6E1E6A1F6A206A080E0301F125ED
:102AE000216E226A020E22225DEC49F059D70101C3
:102AF00063511D6E1E6A1F6A206A080E0301F125CC
:102B0000216E226A020E22225DEC49F01D50030163
:102B1000F127000120EE01F0CD51D926CE51DA2265
:102B2000DF50D8B413D3010163518BEC6EF0010177
:102B3000256F0CD30301F0513E0D700EF324D96EB6
:102B4000010EF420DA6EDF500201FC6FFC511D6EA5
:102B50001E6A1F6A206A080E0301F125216E226A8F
:102B6000020E22225DEC49F073D20301F0513E0DBA
:102B7000710EF324D96E010EF420DA6EDF500201DB
:102B8000FC6FFC511D6E1E6A1F6A206A080E03014D
:102B9000F125216E226A020E22225DEC49F01D50C1
:102BA0000301F127000120EE01F0CD51D926CE51CD
:102BB000DA22DF50D8A4C1D6C9D20301F0513E0DAC
:102BC000A70EF324D96E010EF420DA6E000EDF6E2C
:102BD000080EF1250F6E106A020E1022F0513E0D04
:102BE0009E0EF324116E010EF420126E4CEC63F075
:102BF000F1D50301F0513E0D760EF324D96E010E8E
:102C0000F420DA6EDF500201FC6FFC511D6E1E6A6B
:102C10001F6A206A080E0301F125216E226A020E46
:102C200022225DEC49F014D20301F0513E0D790EE1
:102C3000F324D96E010EF420DA6EDF500201FC6F2E
:102C4000FC511D6E1E6A1F6A206A080E0301F125E1
:102C5000216E226A020E22225DEC49F0F9D120EEAB
:102C600001F0CD51D926CE51DA22DF50D8A43AD482
:102C7000080E0301F125D96EDA6A020EDA22460E39
:102C8000DF6EF12B080EF125D96EDA6A020EDA2218
:102C9000410EDF6EF12B080EF125D96EDA6A020EB5
:102CA000DA22490EDF6EF12B080EF125D96EDA6AB1
:102CB000020EDA224C0EDF6EF12B48D20301F051E6
:102CC0003E0D7A0EF324D96E010EF420DA6EDECFBB
:102CD000C3F0DECFC4F0DECFC5F0DECFC6F0080E05
:102CE000F1250001C76FC86B020EC823E9EC68F03C
:102CF000C3510301F127080EF125D96EDA6A020EDD
:102D0000DA222C0EDF6EF12BF0513E0D7E0EF324F5
:102D1000D96E010EF420DA6EDECFC3F0DECFC4F040
:102D2000DECFC5F0DECFC6F0080EF1250001C76F7B
:102D3000C86B020EC823E9EC68F0C3510301F12708
:102D4000080EF125D96EDA6A020EDA222C0EDF6E39
:102D5000F12BF0513E0D820EF324D96E010EF420BA
:102D6000DA6EDECFC3F0DECFC4F0DECFC5F0DECF4B
:102D7000C6F0080EF1250001C76FC86B020EC8230C
:102D8000E9EC68F05ED50301F0513E0D7A0EF324B4
:102D9000D96E010EF420DA6EDECFC3F0DECFC4F0C0
:102DA000DECFC5F0DECFC6F0080EF1250001C76FFB
:102DB000C86B020EC823E9EC68F043D50301F0515B
:102DC0003E0D820EF324D96E010EF420DA6EDECFB2
:102DD000C3F0DECFC4F0DECFC5F0DECFC6F0080E04
:102DE000F1250001C76FC86B020EC823E9EC68F03B
:102DF000C3510301F127080EF125D96EDA6A020EDC
:102E0000DA222C0EDF6EF12B080EF12500019D6FEA
:102E10009E6B020E9E23960E9F6F230EA06F0301E2
:102E2000F0513E0D860EF324D96E010EF420DA6EB9
:102E3000DECFA1F0DECFA2F0DECFA3F0DECFA4F094
:102E400008EC1FF09D510301F127080EF125D96E02
:102E5000DA6A020EDA222C0EDF6EF12BF0513E0DF3
:102E60007A0EF324D96E010EF420DA6EDECFC3F0B1
:102E7000DECFC4F0DECFC5F0DECFC6F0080EF12500
:102E80000001C76FC86B020EC823E9EC68F0C3519C
:102E90000301F127080EF125D96EDA6A020EDA2253
:102EA0002C0EDF6EF12BF0513E0D7E0EF324D96E09
:102EB000010EF420DA6EDECFC3F0DECFC4F0DECF39
:102EC000C5F0DECFC6F0080EF1250001C76FC86B54
:102ED000020EC823E9EC68F0C3510301F127080E84
:102EE000F125D96EDA6A020EDA222C0EDF6EF12B92
:102EF000F0513E0DA80EF324D96E010EF420DA6EC7
:102F0000DECFC3F0DECFC4F0DECFC5F0DECFC6F03B
:102F1000080EF1250001C76FC86B020EC823E9EC4B
:102F200068F08FD40301F0513E0D8E0EF324D96E5C
:102F3000010EF420DA6EDECFC3F0DECFC4F0DECFB8
:102F4000C5F0DECFC6F0080EF1250001C76FC86BD3
:102F5000020EC823E9EC68F074D40301F0513E0D71
:102F6000920EF324D96E010EF420DA6EDECFC3F098
:102F7000DECFC4F0DECFC5F0DECFC6F0080EF125FF
:102F80000001C76FC86B020EC823E9EC68F059D482
:102F90000301F0513E0D770EF324D96E010EF4209B
:102FA000DA6EDF500201FC6FFC511D6E1E6A1F6A53
:102FB000206A080E0301F125216E226A020E2222E8
:102FC0005DEC49F045D00301F0513E0D960EF3241F
:102FD000D96E010EF420DA6EDECF1DF0DECF1EF0CA
:102FE000DECF1FF0DECF20F0080EF125216E226A21
:102FF000020E22225DEC49F02BD00301F0513E0D70
:103000009A0EF324D96E010EF420DA6EDECF1DF095
:10301000DECF1EF0DECF1FF0DECF20F0080EF12550
:10302000216E226A020E22225DEC49F011D064C1A9
:103030001DF065C11EF066C11FF067C120F0080ECB
:103040000301F125216E226A020E22225DEC49F075
:103050001D50C4D4000120EE02F0CD51D926CE512E
:10306000DA22DF50010AD8B472EF12F0030AD8B4A2
:1030700084EF12F0070AD8B410EF13F0030AD8B4A3
:1030800030EF14F0010AD8B438EF14F00F0AD8B4B6
:1030900092EF12F0010AD8B444EF14F0030AD8B446
:1030A00042EF14F0010AD8B408D4070AD8B449D4BE
:1030B000010AD8B466D4030AD8B480D4010AD8B4BB
:1030C00090D41F0AD8B49DD4010AD8B4AAD4030A54
:1030D000D8B4BAD4010AD8B4EAD4070AD8B4F7D419
:1030E000010AD8B4C3D4030AD8B401D5010AD8B4AC
:1030F00019D70F0AD8B431D7010AD8B41BD5030A9F
:10310000D8B433D5010AD8B458D5070AD8B4D6D51F
:10311000010AD8B438D6030AD8B450D6010AD8B4B4
:1031200068D53F0AD8B480D5010AD8B498D5030A27
:10313000D8B495D5010AD8B42BD7070AD8B45DD72F
:10314000010AD8B440D7030AD8B471D7080E0301D6
:10315000F125D96EDA6A020EDA220D0EDF6EF12B3E
:10316000080EF125D96EDA6A020EDA220A0EDF6E37
:10317000F12B080EF125D96EDA6A020EDA22000E62
:10318000DF6EF12B080E166E020E176EDFEC6DF07F
:103190001200A4C0D9FFA5C0DAFFDF50A66FA76B4D
:1031A000FF0EA625FF0EA721800BD8A40DD0A4C02A
:1031B000D9FFA5C0DAFFDF50A66FFF0EA625A86FC6
:1031C000A96BFF0EA92304D0000EA96F000EA86FF3
:1031D000A8C0ACF0050ECF6101D0120020EE0EF0B9
:1031E000A451D926A551DA22DF50D8B437EF1EF00A
:1031F00020EE02F0A451D926A551DA22160EDF6482
:103200001FD020EE02F0A451D926A551DA22260EB5
:10321000DF6016D0AC513E0D270EF3240F6E030E67
:10322000F420106EAC513E0D700EF324116E010EA1
:10323000F420126E000E146E3E0E136EA6EC68F0B3
:10324000000120EE02F0A451D926A551DA220B0E7E
:10325000DE18D8A437EF1EF0D251D8B40ED0270E06
:103260000F6E030E106E700E116E010E126E000EB8
:10327000146E3E0E136EA6EC68F00001D351D8B464
:1032800037EF1EF0650E0F6E030E106EAE0E116E50
:10329000010E126E000E146E3E0E136EA6EC68F058
:1032A00037EF1EF052EC6FF0120039EC6FF01200A5
:1032B0000F0EA4250F6E000EA521106EC8EC68F04D
:1032C000080E0F181010D8A4A6EF1EF00F0E000164
:1032D000A4250F6E000EA521106E000E126E080EB2
:1032E000116E35EC6CF00009D8B4A6EF1EF0000E9C
:1032F000AA6FAA51A425A66F000EA521A76F0F0ED5
:10330000A625D96E000EA721DA6E680EAA25E16EF9
:10331000E26A010EE222DFCFE7FFAA2B070EAA65C1
:10332000E8D7A6EF1EF019EC6FF0A6EF1EF00F0E17
:10333000A4251B6E000EA5211C6E0BEC50F01B503B
:103340000001AB6F020EAB61A6EF1EF0ABC053F1F4
:10335000A6EF1EF00F0EA4251B6E000EA5211C6EFD
:103360000BEC50F01B500001AB6F020EAB61A6EFEF
:103370001EF0ABC054F1A6EF1EF00F0EA4251B6E7D
:10338000000EA5211C6E0BEC50F01B500001AB6F22
:10339000020EAB61A6EF1EF0ABC055F1A6EF1EF01A
:1033A0000F0EA4251B6E000EA5211C6E0BEC50F019
:1033B0001B500001AB6FAB51D8B4A6EF1EF0100E3E
:1033C000AB61A6EF1EF0ABC056F1A6EF1EF00F0EDC
:1033D000A4251B6E000EA5211C6E0BEC50F01B509B
:1033E0000001AB6FAB51D8B4A6EF1EF0090EAB6174
:1033F000A6EF1EF0ABC057F1A6EF1EF0000E916FC6
:10340000000E926F000E936F000E946F0F0EA425A6
:103410007D6F000EA5217E6FC5EC44F07DC095F058
:103420007EC096F07FC097F080C098F031EC56F0E7
:10343000D8B0A6EF1EF00F0EA4257D6F000EA521BB
:103440007E6FC5EC44F07DC058F17EC059F17FC05D
:103450005AF180C05BF1A6EF1EF00F0EA4251B6E83
:10346000000EA5211C6E0BEC50F01B501C101D1003
:103470001E10D8B4A6EF1EF00F0E0001A4251B6E7F
:10348000000EA5211C6E0BEC50F01BC05CF11CC0A3
:103490005DF11DC05EF11EC05FF1A6EF1EF00F0EC4
:1034A000A4251B6E000EA5211C6E0BEC50F01B50CA
:1034B0000001AB6F020EAB61A6EF1EF0ABC060F176
:1034C000A6EF1EF00F0EA4251B6E000EA5211C6E8C
:1034D0000BEC50F01B500001AB6FAB51D8B4A6EF12
:1034E0001EF0ABC061F1A6EF1EF00F0EA4251B6EFF
:1034F000000EA5211C6E0BEC50F01B500001AB6FB1
:10350000060EAB61A6EF1EF0ABC062F1A6EF1EF097
:103510000F0EA4251B6E000EA5211C6E0BEC50F0A7
:103520001B500001AB6F050EAB61A6EF1EF0ABC0E8
:1035300063F1A6EF1EF00F0EA4251B6E000EA52151
:103540001C6E0BEC50F01B500001AB6F020EAB6118
:10355000FDD3AC513E0D700EF324D96E010E2AD36B
:103560000F0EA4251B6E000EA5211C6E0BEC50F057
:103570001B500001AB6F020EAB61E8D3AC513E0DA6
:10358000760EF324D96E010E15D30F0EA4251B6EF3
:10359000000EA5211C6E0BEC50F01B500001AB6F10
:1035A000020EAB61D3D3AC513E0D790EF324D96E2C
:1035B000010E00D3AC513E0D780EF324D96E010EEE
:1035C0006DD0AC513E0D780EF324D96E010EF4206F
:1035D000DA6E010E66D00F0EA4257D6F000EA521B8
:1035E0007E6FC5EC44F0AC513E0D8E0EF324D96EC7
:1035F000010E0ED00F0EA4257D6F000EA5217E6F4B
:10360000C5EC44F0AC513E0D920EF324D96E010E80
:10361000F420DA6E7DC0DEFF7EC0DEFF7FC0DEFFFD
:1036200080C0DEFF93D30F0EA4251B6E000EA521D4
:103630001C6E0BEC50F01B500001AB6F030EAB6126
:1036400085D3ABC017F0AC515BEC3FF07FD30F0ECE
:10365000A4250F6E000EA521106EC8EC68F0105066
:1036600016E10A0E0F5CD8B012D00001AC513E0D2D
:103670009E0EF3240F6E010EF420106E0F0EA42583
:10368000116E000EA521126E4CEC63F05FD30001A9
:10369000AC513E0DA70EF324D96E010EF420DA6E64
:1036A000000EDF6E53D30F0EA425136E000EA5215E
:1036B000146E2F0EA425156E000EA521166E030E96
:1036C000176E200E186EF2EC54F00001A66F020E79
:1036D000A6653CD32F0EA4257D6F000EA5217E6F1D
:1036E000C5EC44F07DC064F07EC065F07FC066F03C
:1036F00080C067F04F0EA4257D6F000EA5217E6F60
:10370000C5EC44F07DC060F07EC061F07FC062F027
:1037100080C063F01BEC68F060C091F061C092F073
:1037200062C093F063C094F0000E0001956F000E2C
:10373000966F000E976F000E986F32EC5FF0D8B066
:1037400005D32F0EA4257D6F000EA5217E6FC5EC3D
:1037500044F0AC513E0D7A0EF324D96E010EF420E4
:10376000DA6E7DC0DEFF7EC0DEFF7FC0DEFF80C080
:10377000DEFF4F0EA4257D6F000EA5217E6FC5ECE8
:1037800044F0AC513E0D7E0EF324D96E010EF420B0
:10379000DA6E7DC0DEFF7EC0DEFF7FC0DEFF80C050
:1037A000DEFF6F0EA4257D6F000EA5217E6FC5EC98
:1037B00044F0AC513E0D820EF324D96E010EF4207C
:1037C000DA6E7DC0DEFF7EC0DEFF7FC0DEFF80C020
:1037D000DEFFAC510C0D080EF324D96E010EF4205F
:1037E000DA6EAC513E0DA80EF324E16E010EF4200A
:1037F000E26EDECFE6FFDECFE6FFDECFE6FFDECF16
:10380000E6FFAC513E0D7A0EF324D96E010EF42082
:10381000DA6EDECF64F0DECF65F0DECF66F0DECFAD
:1038200067F0AC513E0D7E0EF324D96E010EF420EC
:10383000DA6EDECF60F0DECF61F0DECF62F0DECF99
:1038400063F01BEC68F060C091F061C092F062C060
:1038500093F063C094F0000E0001956F000E966F18
:10386000000E976F000E986F32EC5FF0D8B06ED2FA
:10387000AC513E0D7A0EF324D96E010EF420DA6EAF
:10388000DECF64F0DECF65F0DECF66F0DECF67F02E
:10389000AC513E0D7E0EF324D96E010EF420DA6E8B
:1038A000DECF60F0DECF61F0DECF62F0DECF63F01E
:1038B0001BEC68F060C00FF061C010F062C011F046
:1038C00063C012F00001AC513E0D820EF324D96E9C
:1038D000010EF420DA6EDECF13F0DECF14F0DECF6F
:1038E00015F0DECF16F0B0EC3BF00001AC513E0D10
:1038F000860EF324D96E010EF420DA6E0FC0DEFFBF
:1039000010C0DEFF11C0DEFF12C0DEFF1FD2AC51BF
:103910003E0D7A0EF324D96E010EF420DA6EDECF5E
:1039200064F0DECF65F0DECF66F0DECF67F0AC513D
:103930000C0D000EF324D96E010EF420DA6EDECFEA
:1039400060F0DECF61F0DECF62F0DECF63F01BEC23
:1039500068F060C091F061C092F062C093F063C003
:1039600094F0000E0001956F000E966F000E976F99
:10397000000E986F32EC5FF0D8B0E8D10F0EA4259E
:103980007D6F000EA5217E6FC5EC44F0AC513E0D5D
:10399000820EF324D96E010EF420DA6E7DC0DEFFB4
:1039A0007EC0DEFF7FC0DEFF80C0DEFFAC510C0DAD
:1039B000000EF324D96E010EF420DA6EAC513E0DE8
:1039C0007E0EF324E16E010EF420E26EDECFE6FF00
:1039D000DECFE6FFDECFE6FFDECFE6FFAC513E0DE9
:1039E0007A0EF324D96E010EF420DA6EDECF64F085
:1039F000DECF65F0DECF66F0DECF67F0AC513E0D76
:103A00007E0EF324D96E010EF420DA6EDECF60F064
:103A1000DECF61F0DECF62F0DECF63F01BEC68F04A
:103A200060C091F061C092F062C093F063C094F006
:103A3000000E0001956F000E966F000E976F000E3E
:103A4000986F32EC5FF0D8A013D780D1AC510C0D39
:103A5000000EF324D96E010EF420DA6EDECF64F08E
:103A6000DECF65F0DECF66F0DECF67F0AC513E0D05
:103A70007E0EF324D96E010EF420DA6EDECF60F0F4
:103A8000DECF61F0DECF62F0DECF63F01BEC68F0DA
:103A900060C091F061C092F062C093F063C094F096
:103AA000000E0001956F000E966F000E976F000ECE
:103AB000986F32EC5FF0D8B049D1AC510C0D000ECC
:103AC000F324D96E010EF420DA6EAC513E0D7A0E5D
:103AD000F324E16E010EF420E26EDECFE6FFDECFCE
:103AE000E6FFDECFE6FFDECFE6FFAC510C0D080EA1
:103AF000F324D96E010EF420DA6EAC513E0DA80EFF
:103B0000F324E16E010EF420E26EDECFE6FFDECF9D
:103B1000E6FFDECFE6FFDECFE6FFAC513E0D7A0ECC
:103B2000F324D96E010EF420DA6EDECF64F0DECF1E
:103B300065F0DECF66F0DECF67F0AC513E0D7E0E55
:103B4000F324D96E010EF420DA6EDECF60F0DECF02
:103B500061F0DECF62F0DECF63F01BEC68F060C096
:103B600091F061C092F062C093F063C094F0000ED7
:103B70000001956F000E966F000E976F000E986F04
:103B800032EC5FF060D70F0EA4251B6E000EA5214E
:103B90001C6E0BEC50F01B500001AB6FAB51D8B456
:103BA000D5D0100EAB61D2D0AC513E0D770EF324C0
:103BB000D96E010EF420DA6EABC0DFFFC7D00F0E56
:103BC000A4251B6E000EA5211C6E0BEC50F000010D
:103BD000AC513E0D9A0EF324D96E010EF420DA6E2C
:103BE0001BC0DEFF1CC0DEFF1DC0DEFF1EC0DEFFEF
:103BF000ADD00F0EA4251B6E000EA5211C6E0BEC84
:103C000050F00001AC513E0D960EF324D96E010E1A
:103C1000F420DA6E1BC0DEFF1CC0DEFF1DC0DEFF1D
:103C20001EC0DEFFAC513E0D7A0EF324D96E010E9C
:103C3000F420DA6EAC513E0D8A0EF324E16E010ED3
:103C4000F420E26EDECFE6FFDECFE6FFDECFE6FF5A
:103C5000DECFE6FFAC513E0D9A0EF324D96E010E75
:103C6000F420DA6EDE6ADE6ADE6ADD6A6FD0000199
:103C700020EE02F0A451D926A551DA22DF50030A22
:103C8000D8B452EF19F0070AD8B455EF19F00E0A5C
:103C9000D8B458EF19F0010AD8B493EF19F0070A15
:103CA000D8B497EF19F0010AD8B4AAEF19F0030AB3
:103CB000D8B4BDEF19F0010AD8B4D0EF19F01F0A3B
:103CC000D8B4E7EF19F0010AD8B4FEEF19F0030AEF
:103CD000D8B42DEF1AF0010AD8B462EF1AF0070A2F
:103CE000D8B403D4010AD8B44FEF1AF0030AD8B4F9
:103CF0000FD4010AD8B46FD40F0AD8B47BD4010A08
:103D0000D8B419D4030AD8B48ED4010AD8B49FD435
:103D1000070AD8B4C8D4010AD8B498D6030AD8B4CC
:103D2000F6D5010AD8B41CD43F0AD8B42ED4010A5F
:103D3000D8B440D4030AD8B444D4010AD8B423D7A1
:103D4000070AD8B43CD7010AD8B453D7000120EEF3
:103D50000EF0A451D926A551DA22DF50D8B41200B2
:103D600020EE02F0A451D926A551DA22090EDF6413
:103D700019D020EE02F0A451D926A551DA22170E4F
:103D8000DF6010D0520E1F6E010E206ED2EC67F075
:103D90000001A66F20EE01F0A451D926A551DA2228
:103DA000A6C0DFFF20EE02F0A451D926A551DA22E9
:103DB0000B0EDE18D8A40CD09CEC51F00001A66FBD
:103DC00020EE01F0A451D926A551DA22A6C0DFFFCA
:103DD00020EE02F0A451D926A551DA22160EDF6496
:103DE000120020EE02F0A451D926A551DA22260EA7
:103DF000DF601200AC5111EC67F00001A66F20EEFD
:103E000001F0A451D926A551DA22A6C0DFFF120085
:103E1000000E0001AF6F000EAE6FA10EAD6FA8D304
:103E2000250EC219D8B40BD09DC0D9FF9EC0DAFFB1
:103E3000C2C0DFFF9D4B9E2BAE4BAF2B99D3000E24
:103E4000B16F000EB06F9FC0F6FFA0C0F7FF080073
:103E5000F5502E0AD8A438D0B18D9F4BA02B000E60
:103E6000BD6F000EBC6F25D0BCC00FF0BDC010F000
:103E7000000E126E0A0E116ECCEC6DF00FC0BCF08D
:103E800010C0BDF0D00E0001A56FFF0EA66F9FC041
:103E9000F6FFA0C0F7FF0800F550A76FA86BA5516B
:103EA000A727A651A823A751BC27A851BD239F4BE4
:103EB000A02B9FC0F6FFA0C0F7FF0800F55031EC23
:103EC0006EF0D8A009D0D0D7000EBD6F000EBC6F29
:103ED000B18902D0B18512D09FC0F6FFA0C0F7FF14
:103EE00000019F4BA02B0800F5CFC2F0C251000A81
:103EF000D8B44AD3660AD8B4EDD73AD3070EB11571
:103F0000D8B405D3B1A904D0000EBD6F060EBC6FA6
:103F1000AD51D96EDA6ADECFBEF0DECFBFF0DECFB4
:103F2000C0F0DECFC1F0040EAD27C1AF14D0BEC0CB
:103F30000FF0BFC010F0C0C011F0C1C012F065ECAE
:103F40006CF00FC0BEF010C0BFF011C0C0F012C0C6
:103F5000C1F0030EB013000EB76F000EB66FBEC0F7
:103F600091F0BFC092F0C0C093F0C1C094F0000EB9
:103F7000956F000E966F000E976F000E986F32ECE3
:103F80005FF0D8B080D0C035C135820FB66FB76B47
:103F9000FF0EB723B607D8A0B707B6C00FF0B7C05B
:103FA00010F0000E126E030E116ECCEC6DF00FC00F
:103FB000B6F010C0B7F0B6C015F0B7C016F0000EDE
:103FC000186E0A0E176EFEEC5FF015C0B6F016C044
:103FD000B7F00001B7AF03D0B607D8A0B707B65106
:103FE0000008B2EC2CF07DC0B8F07EC0B9F07FC004
:103FF000BAF080C0BBF0B8C038F0B9C039F0BAC070
:104000003AF0BBC03BF0BEC03CF0BFC03DF0C0C00A
:104010003EF0C1C03FF09FEC2EF038C0B8F039C080
:10402000B9F03AC0BAF03BC0BBF0B8C091F0B9C02B
:1040300092F0BAC093F0BBC094F0000E956F000EE2
:10404000966F800E976F3F0E986F31EC56F0D8B098
:1040500004D0B607D8A0B70716D0B8C091F0B9C041
:1040600092F0BAC093F0BBC094F0000E956F000EB2
:10407000966F200E976F410E986F31EC56F0D8A0D6
:1040800002D0B64BB72BBDBF06D0BD5121E10D0EFE
:10409000BC5DD8B01DD0BEC028F0BFC029F0C0C0E4
:1040A0002AF0C1C02BF0BC51F4EC3CF07DC02CF0E8
:1040B0007EC02DF07FC02EF080C02FF0BFEC31F01D
:1040C00028C0BEF029C0BFF02AC0C0F02BC0C1F08C
:1040D0000001B7BF06D0B7512FE10A0EB65DD8B0C8
:1040E0002BD0BEC091F0BFC092F0C0C093F0C1C051
:1040F00094F0000E956F000E966F000E976F000EF5
:10410000986F32EC5FF0D8B05FD0BEC07DF0BFC01A
:104110007EF0C0C07FF0C1C080F052EC59F07D51FC
:104120007E117F118011D8B4B7BF4ED0B75104E1D2
:10413000020EB65DD8A048D0B8C091F0B9C092F0D8
:10414000BAC093F0BBC094F05F0E956F700E966F7F
:10415000890E976F400E986F31EC56F0D8B002D0B0
:10416000F70E01D0F80EB627FF0EB723B651B2EC0A
:104170002CF07DC0B8F07EC0B9F07FC0BAF080C02E
:10418000BBF0BEC00FF0BFC010F0C0C011F0C1C086
:1041900012F0B8C013F0B9C014F0BAC015F0BBC02B
:1041A00016F01BEC53F00FC0B2F010C0B3F011C00A
:1041B000B4F012C0B5F0000EBE6F000EBF6F000E5F
:1041C000C06F000EC16F3CD0BEC07DF0BFC07EF09E
:1041D000C0C07FF0C1C080F052EC59F07DC0B2F099
:1041E0007EC0B3F07FC0B4F080C0B5F0BEC060F058
:1041F000BFC061F0C0C062F0C1C063F0B2C00FF0D8
:10420000B3C010F0B4C011F0B5C012F0000E4BEC0A
:104210004BF00FC064F010C065F011C066F012C022
:1042200067F01BEC68F060C0BEF061C0BFF062C018
:10423000C0F063C0C1F0000E0001B76F000EB66F92
:10424000010EC26FC251040DFB0EF324F66E220E56
:10425000F420F76E0900F550B25D0900F550B3592E
:104260000900F550B4590900F550B559D8A005D04A
:10427000C22B0A0EC219D8A4E5D7B0C0A5F0030E10
:10428000A517D8B453D09DC0D9FF9EC0DAFF2D0E1C
:10429000DF6E9D4B9E2BAE4BAF2B48D0B2C00FF0C4
:1042A000B3C010F0B4C011F0B5C012F0C251040D8B
:1042B000FB0EF324F66E220EF420F76E0900F5CF04
:1042C00013F00900F5CF14F00900F5CF15F00A003E
:1042D000F5CF16F082EC60F00FC0B8F010C0B9F066
:1042E00011C0BAF012C0BBF0B8C00FF0B9C010F0E6
:1042F000BAC011F0BBC012F00A0E136E000E146E9D
:10430000000E156E000E166EC6EC64F00FC0B8F00D
:1043100010C0B9F011C0BAF012C0BBF00001B85122
:10432000300F9DC0D9FF9EC0DAFFB2D7C207C229A5
:10433000D8B40ED0B3D79DC0D9FF9EC0DAFF300EDF
:10434000DF6E9D4B9E2BAE4BAF2BB607D8A0B707A9
:10435000B7BF05D0B751EFE1B605D8B0ECD7BDBFB8
:1043600009D0BD5104E1090EBC5DD8A003D0080EF0
:10437000C26F02D0BCC0C2F0C251BC5F000EBD5BB8
:10438000C251D8B40AD09DC0D9FF9EC0DAFF2E0E0C
:10439000DF6E9D4B9E2BAE4BAF2BC251B2EC2CF07F
:1043A0007DC0A9F07EC0AAF07FC0ABF080C0ACF0A9
:1043B000BEC03CF0BFC03DF0C0C03EF0C1C03FF049
:1043C000A9C038F0AAC039F0ABC03AF0ACC03BF09D
:1043D0009FEC2EF038C07DF039C07EF03AC07FF0FF
:1043E0003BC080F052EC59F07DC0B2F07EC0B3F01B
:1043F0007FC0B4F080C0B5F072D0B2C00FF0B3C0CF
:1044000010F0B4C011F0B5C012F0C251040DFB0E93
:10441000F324F66E220EF420F76E0900F5CF13F0A8
:104420000900F5CF14F00900F5CF15F00A00F5CF1B
:1044300016F082EC60F00FC0B8F010C0B9F011C0F7
:10444000BAF012C0BBF0B8C00FF0B9C010F0BAC0DB
:1044500011F0BBC012F00A0E136E000E146E000EA7
:10446000156E000E166EC6EC64F00FC0B8F010C0EA
:10447000B9F011C0BAF012C0BBF00001B851300F52
:104480009DC0D9FF9EC0DAFFDF6E9D4B9E2BAE4BC9
:10449000AF2BB2C00FF0B3C010F0B4C011F0B5C074
:1044A00012F0C251040DFB0EF324F66E220EF4201E
:1044B000F76E0900F5CF13F00900F5CF14F00900ED
:1044C000F5CF15F00A00F5CF16F0C6EC64F00FC07A
:1044D000B2F010C0B3F011C0B4F012C0B5F00001DA
:1044E000C207C229D8B40ED088D79DC0D9FF9EC0BC
:1044F000DAFF300EDF6E9D4B9E2BAE4BAF2BBC0711
:10450000D8A0BD07BC51BD11D8B432D0EED7BC5134
:10451000BD11D8A408D0B251B311B411B511D8A4AB
:1045200002D0BC4BBD2BC251A56FA66BBC51A55D83
:10453000A651800AA76FBD51800AA759D8A00BD0F9
:10454000C251A56FA66BA551BC5DBD51800AA76F76
:10455000A651800AA759B0C0A5F0030EA517D8B47C
:1045600007D09DC0D9FF9EC0DAFF2D0EDF6E62D44A
:104570009FC0F6FFA0C0F7FF9F4BA02B0800F5CF10
:10458000C2F0C251D8A44CD49DC0D9FF9EC0DAFF5E
:10459000000EDF6EAEC09DF0AFC09EF0120009D3DA
:1045A000E80EE05D030EE159D8A01200000EF96F8D
:1045B000000EE16F000EE06F000EF86F010ECF6F7E
:1045C000120040EC6FF00009D8B46CD04CEC6FF0E6
:1045D0000009D8A467D00001F951B4EC42F0000101
:1045E000F951D20FD96EDA6A000EDF6EF951D40F8D
:1045F000D96EDA6A000EDF6EF951D60FD96EDA6A1B
:10460000000EDF6E010ED7EC6AF00001F951F1ECFB
:104610006DF00001CC6F000ED7EC6AF00001CC0504
:10462000D8A433D0F951D20FD96EDA6A010EDF6EF9
:10463000F9513E0D700EF3240F6E010EF420106E32
:10464000000E126E3C0E116E66EC62F00001F95124
:104650003E0DAC0EF324D96E010EF420DA6EDE505E
:104660000F180AE1DE501018D8A406D0F951D40F63
:10467000D96EDA6A010EDF6E000EF86F000EE16F80
:10468000000EE06F020ECF6F1200F82B040EF865DB
:1046900009D0000EF86F000EE16F000EE06F020E01
:1046A000CF6F1200000E0001E16F000EE06F0A0EE6
:1046B000D16F0C0ECF6F010ED06F1200F92B010ECF
:1046C000F965F0D7000EF96F000EE16F000EE06F94
:1046D0000A0ED16F0C0ECF6F030ED06F120040EC9C
:1046E0006FF00009D8B440D04CEC6FF00009D8A4AA
:1046F0003BD00001F951D20FD96EDA6ADE04D8A49A
:104700002AD0F951D40FD96EDA6ADE04D8A423D0A6
:10471000010ED7EC6AF00001F95165EC6AF0000176
:10472000CD6F000ED7EC6AF00001CD05D8A40FD0F4
:10473000F951D60FD96EDA6A010EDF6E000EF86FEE
:10474000000EE16F000EE06F040ECF6F1200F82B29
:10475000040EF86509D0000EF86F000EE16F000E30
:10476000E06F040ECF6F1200000E0001E16F000E2B
:10477000E06F0A0ED16F0C0ECF6F030ED06F1200D8
:10478000F92B010EF965F0D7000EF96F010EE16FFC
:10479000EA0EE06F050ECF6F1200200EFA19D8B4A2
:1047A00004D001015305D8A41200F40E0001E05D0D
:1047B000010EE159D8A01200000EE16F000EE06F6B
:1047C000D251D8B40BD0D451D8B408D0D651D8B423
:1047D00005D0000EF96F060ECF6F1200D351D8B47A
:1047E0001200D551D8B41200D751D8B41200010E1E
:1047F000F96F060ECF6F120040EC6FF00009D8B4CD
:1048000034D04CEC6FF00009D8A42FD0010ED7ECB7
:104810006AF00001F951D40FD96EDA6ADF50D8B4CA
:1048200019D0F951D60FD96EDA6ADF50D8B412D048
:10483000F9519FEC6AF00009D8B40CD0000E0001C9
:10484000E16F000EE06F050ED16F0C0ECF6F070EFB
:10485000D06F1200000ED7EC6AF0000E0001E16F7D
:10486000000EE06F0B0ECF6F1200000E0001E16F23
:10487000000EE06F0A0ED16F0C0ECF6F060ED06FD8
:104880001200F95105EC5AF00009D8B40CD0000E12
:104890000001E16F000EE06F020ED16F0C0ECF6FC2
:1048A000080ED06F07D0000E0001E16F000EE06F20
:1048B0000B0ECF6F000ED7EC6AF0120040EC6FF0D9
:1048C0000009D8B434D04CEC6FF00009D8A42FD034
:1048D000010ED7EC6AF00001F951D40FD96EDA6AF3
:1048E000DF50D8B419D0F951D60FD96EDA6ADF503B
:1048F000D8B412D0F951BBEC6AF00009D8B40CD08E
:10490000000E0001E16F000EE06F060ED16F0C0E7D
:10491000CF6F090ED06F1200000E0001E16F000E84
:10492000E06F0B0ECF6F000ED7EC6AF01200000E96
:104930000001E16F000EE06F0A0ED16F0C0ECF6F19
:10494000080ED06F1200F95106EC4AF00009D8B4F5
:1049500007D0000E0001E16F000EE06F0A0E06D0D6
:10496000000E0001E16F000EE06F0B0ECF6F000E26
:10497000D7EC6AF01200F9513E0D710EF324D96E96
:10498000010EF420DA6EDF50D8B49BD0F9513E0D01
:10499000710EF324D96E010EF420DA6E030EDF607F
:1049A00090D0F9510C0D000EF324D96E010EF420B5
:1049B000DA6E18C1DEFF19C1DEFF1AC1DEFF1BC1AE
:1049C000DEFFF951050DEA0EF3247D6F020EF4208F
:1049D0007E6F1CC17FF01DC180F01EC181F01FC120
:1049E00082F0F9513E0D770EF324D96E010EF420BA
:1049F000DA6EDF50836F02EC48F0F9510C0D040EB3
:104A0000F324D96E010EF420DA6E7DC0DEFF7EC085
:104A1000DEFF7FC0DEFF80C0DEFFF9510C0D040E0B
:104A2000F324D96E010EF420DA6EDECF28F0DECF4B
:104A300029F0DECF2AF0DECF2BF0F9513E0D8E0E9D
:104A4000F324D96E010EF420DA6EDECF2CF0DECF27
:104A50002DF0DECF2EF0DECF2FF0BFEC31F00001D5
:104A6000F9510C0D040EF324D96E010EF420DA6E08
:104A700028C0DEFF29C0DEFF2AC0DEFF2BC0DEFF1C
:104A8000F9510C0D040EF324D96E010EF420DA6EE8
:104A9000F951040DDA0EF324E16E020EF420E26EF9
:104AA000DECFE6FFDECFE6FFDECFE6FFDECFE6FFBE
:104AB00021EE20F0F9510C0D080EF324E16E010EE9
:104AC0003AD0F9510C0D000EF324D96E010EF420EA
:104AD000DA6EB00EDE6E230EDE6E740EDE6EC90E62
:104AE000DD6EDD52DD52F9510C0D080EF324E16E3E
:104AF000010EF420E26EDECFE6FFDECFE6FFDECF72
:104B0000E6FFDECFE6FFF9510C0D040EF324D96E5B
:104B1000010EF420DA6EB00EDE6E230EDE6E740E21
:104B2000DE6EC90EDD6EDD52DD52F951040DDA0E76
:104B3000F324E16E020EF420E26EDECFE6FFDECF5C
:104B4000E6FFDECFE6FFDECFE6FF87D6F92B010ECC
:104B5000F96509D0000EF96F000EE16F000EE06FED
:104B60000D0ECF6F1200000EE16F000EE06F020E0F
:104B7000D16F0C0ECF6F060ED06F1200D151CA6FDD
:104B8000CB6BCA51E05DCB51E159D8A01200000EA9
:104B9000E16F000EE06FD0C0CFF01200000EF86F92
:104BA000000EF96F000EE16F000EE06F050ECF6F83
:104BB00012000001CF51000AD8B4F2D4010AD8B4CF
:104BC00000D5030AD8B47AD5010AD8B488D5070A23
:104BD000D8B4D6D5010AD8B4E0D5030AD8B40CD6D7
:104BE000010AD8B44ED60F0AD8B468D6010AD8B490
:104BF000AAD6030AD8B4BFD6010AD8B4A7D7070AE1
:104C0000D8B4BCD7010AD8A41200C8D723EE00F04C
:104C100010EE92F0110EDBCFE3FFE806FCE2690E26
:104C2000F66E230EF76E0800F5503F0AD8B439D05F
:104C3000700EF66E230EF76E0800F5500F6E106AB8
:104C4000030E126EE80E116ECCEC6DF0710EF66E66
:104C5000230EF76E0800F550640DF3CF40F0F4CF4B
:104C600041F0720EF66E230EF76E0800F5500A0D35
:104C7000F3504026F45041220F504026105041225C
:104C8000730EF66E230EF76E0800F5504026000EE8
:104C90004122B00E402400016C6F2F0E41206D6F39
:104CA00005D0000E00016D6F630E6C6F940E6C25C5
:104CB0009C6FF80E6D219D6F690EF66E230EF76ED8
:104CC0000800F5503F0AD8B448D1690EF66E230E9D
:104CD000F76E0800F5504A0AD8A412D06A0EF66E94
:104CE000230EF76E0800F550610AD8A409D06B0EA8
:104CF000F66E230EF76E0800F5506E0AD8B424D174
:104D0000690EF66E230EF76E0800F550460AD8B409
:104D100012D1690EF66E230EF76E0800F5504D0A9B
:104D2000D8A412D06A0EF66E230EF76E0800F55066
:104D3000610AD8A409D06B0EF66E230EF76E080038
:104D4000F550720AD8B4EED0690EF66E230EF76EE7
:104D50000800F550410AD8A409D06A0EF66E230E59
:104D6000F76E0800F550700AD8B4D3D0690EF66E0D
:104D7000230EF76E0800F5504D0AD8A412D06A0E23
:104D8000F66E230EF76E0800F550610AD8A409D01C
:104D90006B0EF66E230EF76E0800F550790AD8B444
:104DA000AFD0690EF66E230EF76E0800F5504A0A72
:104DB000D8A412D06A0EF66E230EF76E0800F550D6
:104DC000750AD8A409D06B0EF66E230EF76E080094
:104DD000F5506E0AD8B48BD0690EF66E230EF76EBE
:104DE0000800F5504A0AD8A412D06A0EF66E230EB7
:104DF000F76E0800F550750AD8A409D06B0EF66E50
:104E0000230EF76E0800F5506C0AD8B467D0690E0F
:104E1000F66E230EF76E0800F550410AD8A409D0AB
:104E20006A0EF66E230EF76E0800F550750AD8B4B8
:104E30004CD0690EF66E230EF76E0800F550530A3B
:104E4000D8B43AD0690EF66E230EF76E0800F5500E
:104E50004F0AD8B428D0690EF66E230EF76E0800FC
:104E6000F5504E0AD8B416D0690EF66E230EF76EC2
:104E70000800F550440AD8B404D0000E876F630EC2
:104E800003D0000E876F0C0E866F86C084F087C03B
:104E900085F004D0000E856F0B0E846F84C082F005
:104EA00085C083F004D0000E836F0A0E826F82C02B
:104EB00080F083C081F004D0000E816F090E806FF6
:104EC00080C07EF081C07FF004D0000E7F6F080E9E
:104ED0007E6F7EC07CF07FC07DF004D0000E7D6FC1
:104EE000070E7C6F7CC07AF07DC07BF004D0000E92
:104EF0007B6F060E7A6F7AC078F07BC079F004D0B1
:104F0000000E796F050E786F78C076F079C077F073
:104F100004D0000E776F040E766F76C074F077C001
:104F200075F004D0000E756F030E746F74C072F0CC
:104F300075C073F004D0000E736F020E726F72C0F2
:104F400070F073C071F004D0000E716F010E706FBD
:104F500070C06EF071C06FF004D0000E6F6F630E02
:104F60006E6FFF0E6E259A6FFF0E6F219B6F690E9D
:104F7000F66E230EF76E0800F5503F0AD8B437D00E
:104F80006D0EF66E230EF76E300E0800F56005D03C
:104F9000000E8B6F000E8A6F17D06D0EF66E230E0B
:104FA000F76E0800F5CF40F0D00E40240F6E106A67
:104FB000FF0E1022000E126E0A0E116ECCEC6DF078
:104FC0000FC08AF010C08BF06E0EF66E230EF76ED7
:104FD0000800F55000018A25406E000E8B21416EBD
:104FE000D00E4024886FFF0E4120896F04D0000E40
:104FF000896F630E886F88C098F089C099F0750E2C
:10500000F66E230EF76E0800F5503F0AD8B41BD099
:10501000750EF66E230EF76E0800F5500A0DF3CFED
:1050200040F0F4CF41F0760EF66E230EF76E0800D6
:10503000F5504026000E4122F00E40248C6FFD0EEC
:1050400041208D6F04D0000E8D6F630E8C6FF70EB4
:105050008C25966FFF0E8D21976F750EF66E230EC1
:10506000F76E0800F5503F0AD8B41BD0780EF66EE4
:10507000230EF76E0800F5500A0DF3CF40F0F4CF81
:1050800041F0790EF66E230EF76E0800F5504026BB
:10509000000E4122F00E40248E6FFD0E41208F6FD6
:1050A00004D0000E8F6F630E8E6F8EC094F08FC091
:1050B00095F0750EF66E230EF76E0800F5503F0A58
:1050C000D8B41BD07B0EF66E230EF76E0800F55099
:1050D0000A0DF3CF40F0F4CF41F07C0EF66E230EB4
:1050E000F76E0800F5504026000E4122F00E4024D5
:1050F000906FFD0E4120916F04D0000E916F630EF2
:10510000906F90C092F091C093F0920E366EC0EC0A
:1051100043F036C068F037C069F038C06AF039C073
:105120006BF068C064F069C065F06AC066F06BC07F
:1051300067F01200000E3F6E27502810D8B404D03C
:1051400029502A10D8A402D0040E120020EE01F03B
:105150002950D9262A50DA22030EDE18D8B414D0EA
:1051600020EE01F02950D9262A50DA22040EDE184A
:10517000D8B40AD020EE16F02750D9262850DA22CB
:105180000A0EDF6E050E120029C0D9FF2AC0DAFF11
:10519000DF50D8A408D020EE16F02750D92628508A
:1051A000DA22120EEED720EE3CF02750D9262850F6
:1051B000DA22080EDE18D8B413D027C021F028C098
:1051C00022F020EE01F02950D9262A50DA22DF50B1
:1051D000236E030E246E020E256E6CEC69F0120035
:1051E00020EE02F02950D9262A50DA22DECF1BF019
:1051F000DDCF1CF0E7EC6EF01BC03AF01CC03BF0BA
:1052000020EE04F02950D9262A50DA22DECF1BF0F6
:10521000DDCF1CF0E7EC6EF01BC040F01CC041F08D
:1052200020EE01F02950D9262A50DA22030EDE188A
:10523000D8B404D0000E346E020E03D0000E346ECB
:10524000010E336E33C039F040504110D8B406D04F
:10525000415004E17E0E405CD8A013D027C021F05D
:1052600028C022F020EE01F02950D9262A50DA2257
:10527000DF50236E030E246E030E256E6CEC69F076
:10528000120020EE01F02750D9262850DA22DE50F5
:10529000DE10D8A413D027C021F028C022F020EEC1
:1052A00001F02950D9262A50DA22DF50236E020E4F
:1052B000246E060E256E6CEC69F0120020EE01F0F3
:1052C0002950D9262A50DA22030EDE18D8B403D08A
:1052D00020EE07F002D020EE05F02750D926285006
:1052E000DA22DECF35F0DDCF36F035503A5C36507D
:1052F0003B58D8B031D020EE01F02950D9262A50A1
:10530000DA22030EDE18D8B403D020EE07F002D064
:1053100020EE05F02750D9262850DA22DECF37F0CC
:10532000DDCF38F03A5040242B6E3B5041202C6E9C
:105330002D6AD8B02D2A2E6A37502F6E3850306E15
:10534000316A326A2B502F5C2C5030582D50315816
:105350002E503258D8B013D027C021F028C022F0E8
:1053600020EE01F02950D9262A50DA22DF50236E90
:10537000020E246E050E256E6CEC69F01200000E14
:105380003F6E41D020EE01F02750D9262850DA2276
:1053900001D821D00500FA6EDE50FD6EDE50FE6EA3
:1053A000F850FF6EFA5039C013F03F503A24146E93
:1053B000000E3B20156E000E176E000E166E20EECE
:1053C00003F02750D9262850DA22DECF18F0DDCF9F
:1053D00019F0020E120013501410D8A413D027C0D5
:1053E00021F028C022F020EE01F02950D9262A50C1
:1053F000DA22DF50236E040E246E070E256E6CEC4D
:1054000069F012003F2A3F502B6E2C6A40502B5CF3
:1054100041502C58D8A0B6D74050020DF350050F7C
:105420003C6E170E3C6402D0020E12001B0E2724A5
:105430003D6E000E28203E6E27C0D9FF28C0DAFF3F
:105440003DC0E1FF3EC0E2FFDFCFE7FF20EE01F00D
:105450002950D9262A50DA2210EE01F03D50E126DB
:105460003E50E222DFCFE7FF20EE02F03D50D9268A
:105470003E50DA2240504024DF6E000E3F6E44D092
:1054800020EE01F02750D9262850DA2201D821D069
:105490000500FA6EDE50FD6EDE50FE6EF850FF6EB7
:1054A000FA5039C013F03F503A24146E000E3B20DE
:1054B000156E000E176E000E166E20EE03F02750CC
:1054C000D9262850DA22DECF18F0DDCF19F0000EF1
:1054D000120013C01BF014C01CF0E7EC6EF03F503C
:1054E000020D3DC02BF03EC02CF0F3502B26F450A3
:1054F0002C22030E2B24D96E000E2C20DA6E1BC03A
:10550000DEFF1CC0DDFF3F2A3F502B6E2C6A40504F
:105510002B5C41502C58D8A0B3D73DC00FF03EC0F3
:1055200010F0FE0E3C24116E126AFF0E12222CECBB
:1055300062F040C02BF041C02CF0D8902B362C36B6
:105540003DC02DF03EC02EF02B502D262C502E228B
:10555000030E2D24D96E000E2E20DA6E0FC0DEFF52
:1055600010C0DDFF20EE32F02750D9262850DA2275
:105570003CC0DFFF20EE16F02750D9262850DA2253
:10558000000EDF6E000E12000301E36FCCC0E8F3E3
:105590000001CB51D60FD96EDA6ADE04D8A456D1F9
:1055A000CB510C0D000EF324D96E010EF420DA6EEF
:1055B000DECF91F0DECF92F0DECF93F0DECF94F02D
:1055C000B00E956F230E966F740E976FC90E986F7D
:1055D00032EC5FF0D8A00FD0080E0301E8250F6E63
:1055E000106A020E1022550E116E230E126E4CEC34
:1055F00063F00F501BD0CB510C0D000EF324D96E6D
:10560000010EF420DA6EDECFC3F0DECFC4F0DECFC1
:10561000C5F0DECFC6F0080E0301E8250001C76F14
:10562000C86B020EC823E9EC68F0C3510301E827F8
:10563000080EE825D96EDA6A020EDA222C0EDF6E29
:10564000E82B0001CB513E0D7A0EF324D96E010EEA
:10565000F420DA6EDECF64F0DECF65F0DECF66F0E8
:10566000DECF67F0CB513E0D7E0EF324D96E010ED6
:10567000F420DA6EDECF60F0DECF61F0DECF62F0D4
:10568000DECF63F01BEC68F060C091F061C092F077
:1056900062C093F063C094F0000E0001956F000E9D
:1056A000966F000E976F000E986F32EC5FF0D8B0D7
:1056B00038D0CB513E0D820EF324D96E010EF4206A
:1056C000DA6EDECF91F0DECF92F0DECF93F0DECF58
:1056D00094F0000E956F000E966F000E976F000EFF
:1056E000986F32EC5FF0D8B01CD0CB510C0D040E8B
:1056F000F324D96E010EF420DA6EDECF91F0DECF06
:1057000092F0DECF93F0DECF94F0B00E956F230EC3
:10571000966F740E976FC90E986F32EC5FF0D8A039
:105720000FD0080E0301E8250F6E106A020E10223A
:10573000550E116E230E126E4CEC63F00F501BD001
:10574000CB510C0D040EF324D96E010EF420DA6E49
:10575000DECFC3F0DECFC4F0DECFC5F0DECFC6F0C3
:10576000080E0301E8250001C76FC86B020EC823AD
:10577000E9EC68F0C3510301E827080EE825D96E6B
:10578000DA6A020EDA222C0EDF6EE82B0001CB5112
:105790000C0D080EF324D96E010EF420DA6EDECF64
:1057A00091F0DECF92F0DECF93F0DECF94F0B00E2A
:1057B000956F230E966F740E976FC90E986F32EC2B
:1057C0005FF0D8A00ED0080E0301E8250F6E106A16
:1057D000020E1022550E116E230E126E4CEC63F069
:1057E00042D0CB510C0D080EF324D96E010EF420DB
:1057F000DA6EDECFE4F3DECFE5F3DECFE6F3DECF25
:10580000E7F3CB513E0D780EF324D96E010EF42050
:10581000DA6EDE04D8A406D0E40E7D6F030E7E6F30
:1058200029EC64F0E4C3C3F0E5C3C4F0E6C3C5F0FB
:10583000E7C3C6F0080E0301E8250001C76FC86B77
:10584000020EC823E9EC68F0C3510ED0080E030124
:10585000E8250F6E106A020E10224B0E116E230EF9
:10586000126E4CEC63F00F500301E827080EE82598
:10587000D96EDA6A020EDA222C0EDF6EE82B0001F6
:10588000CB513E0D7A0EF324D96E010EF420DA6E60
:10589000DECFC3F0DECFC4F0DECFC5F0DECFC6F082
:1058A000080E0301E8250001C76FC86B020EC8236C
:1058B000E9EC68F0C3510301E827080EE825D96E2A
:1058C000DA6A020EDA222C0EDF6EE82B080EE825CB
:1058D00000019D6F9E6B020E9E23960E9F6F230EFE
:1058E000A06FCB513E0D860EF324D96E010EF4202D
:1058F000DA6EDECFA1F0DECFA2F0DECFA3F0DECFF6
:10590000A4F008EC1FF09D510301E827E351D8B43F
:1059100027D0080EE825D96EDA6A020EDA222C0E9C
:10592000DF6EE82B0001CB513E0D8A0EF324D96EB9
:10593000010EF420DA6EDECFC3F0DECFC4F0DECF8E
:10594000C5F0DECFC6F0080E0301E8250001C76FE1
:10595000C86B020EC823E9EC68F0C3510301E827C5
:10596000E8511200856F000185AFF5D0856D855136
:10597000800A120FD8A089D0000E186E0A0E176E7A
:10598000000E126E640E116E85510F6E106A0FBEFE
:10599000100684EC63F00FC015F010C016F0FEEC9A
:1059A0005FF0090E15261550040D3D0EF324F66E1A
:1059B000200EF420F76E0900F5CF3CF00900F5CF7A
:1059C0003DF00900F5CF3EF00A00F5CF3FF0000EA4
:1059D000186E640E176E00018551156E166A15BE9D
:1059E0001606FEEC5FF0120E15261550040D3D0E46
:1059F000F324F66E200EF420F76E0900F5CF38F090
:105A00000900F5CF39F00900F5CF3AF00A00F5CFDB
:105A10003BF09FEC2EF038C081F039C082F03AC0E4
:105A200083F03BC084F081C038F082C039F083C07D
:105A30003AF084C03BF0000E126E0A0E116E8551D2
:105A40000F6E106A0FBE100684EC63F00F50040D49
:105A50003D0EF324F66E200EF420F76E0900F5CF0C
:105A60003CF00900F5CF3DF00900F5CF3EF00A000B
:105A7000F5CF3FF09FEC2EF038C07DF039C07EF0BE
:105A80003AC07FF03BC080F012008551800A750F4C
:105A9000D8A04CD0000E186E0A0E176E8551156EE8
:105AA000166A15BE1606FEEC5FF0090E1526155097
:105AB000040D3D0EF324F66E200EF420F76E09005F
:105AC000F5CF38F00900F5CF39F00900F5CF3AF0FD
:105AD0000A00F5CF3BF0000E126E0A0E116E0001A7
:105AE00085510F6E106A0FBE100684EC63F00F50E4
:105AF000040D3D0EF324F66E200EF420F76E09001F
:105B0000F5CF3CF00900F5CF3DF00900F5CF3EF0B0
:105B10000A00F5CF3FF09FEC2EF038C07DF039C081
:105B20007EF03AC07FF03BC080F012008551040D3A
:105B30003D0EF324F66E200EF420F76E0900F5CF2B
:105B40007DF00900F5CF7EF00900F5CF7FF00A0067
:105B5000F5CF80F012008551800A120FD8A089D0AD
:105B6000000E186E0A0E176E000E126E640E116E85
:105B700085510F6E106A0FBE100684EC63F00FC0E3
:105B800015F010C016F0FEEC5FF0090E152615504A
:105B9000040D090EF324F66E200EF420F76E0900B2
:105BA000F5CF3CF00900F5CF3DF00900F5CF3EF010
:105BB0000A00F5CF3FF0000E186E640E176E00015C
:105BC0008551156E166A15BE1606FEEC5FF0120EB4
:105BD00015261550040D090EF324F66E200EF42040
:105BE000F76E0900F5CF38F00900F5CF39F009005C
:105BF000F5CF3AF00A00F5CF3BF09FEC2EF038C01D
:105C000081F039C082F03AC083F03BC084F081C09B
:105C100038F082C039F083C03AF084C03BF0000E07
:105C2000126E0A0E116E85510F6E106A0FBE1006AD
:105C300084EC63F00F50040D090EF324F66E200E71
:105C4000F420F76E0900F5CF3CF00900F5CF3DF0E8
:105C50000900F5CF3EF00A00F5CF3FF09FEC2EF0A3
:105C600038C07DF039C07EF03AC07FF03BC080F094
:105C700012008551800A750FD8A04CD0000E186E06
:105C80000A0E176E8551156E166A15BE1606FEECC5
:105C90005FF0090E15261550040D090EF324F66E5B
:105CA000200EF420F76E0900F5CF38F00900F5CF8B
:105CB00039F00900F5CF3AF00A00F5CF3BF0000EBD
:105CC000126E0A0E116E000185510F6E106A0FBE22
:105CD000100684EC63F00F50040D090EF324F66EE9
:105CE000200EF420F76E0900F5CF3CF00900F5CF47
:105CF0003DF00900F5CF3EF00A00F5CF3FF09FECF4
:105D00002EF038C07DF039C07EF03AC07FF03BC045
:105D100080F012008551040D090EF324F66E200E5A
:105D2000F420F76E0900F5CF7DF00900F5CF7EF085
:105D30000900F5CF7FF00A00F5CF80F012003B504C
:105D4000800B0001706F3B503B24726F3ABE728132
:105D50007251D8B40DD07229D8A408D0000E386E74
:105D6000000E396E000E3A6E000E3B6E3A8E08D071
:105D7000000E386E000E396E000E3A6E000E3B6E4D
:105D80003F50800B701B3F503F24716F3EBE7181AE
:105D90007151D8B40DD07129D8A408D0000E3C6E32
:105DA000000E3D6E000E3E6E000E3F6E3E8E08D021
:105DB000000E3C6E000E3D6E000E3E6E000E3F6EFD
:105DC0007151D8B403D07251D8A409D0000E386EE6
:105DD000000E396E000E3A6E000E3B6E12003E5001
:105DE0003802F3CF7BF0F4CF7CF07B51736F746B90
:105DF000756B766B7C51776F786B796B7A6B3D50F6
:105E00003902F3CF7BF0F4CF7CF07B517327000E87
:105E10007423752376237C517727000E782379230A
:105E20007A233C503A02F3CF7BF0F4CF7CF07B51E5
:105E30007327000E7423752376237C517727000E79
:105E4000782379237A2375C076F074C075F073C017
:105E500074F0736B3C503902F3CF7BF0F4CF7CF0DD
:105E60007B5173277C517423000E7523000E76231B
:105E70003D503802F3CF7BF0F4CF7CF07B51732799
:105E80007C517423000E7523000E762375C076F0C6
:105E900074C075F073C074F0736B3C503802F3CF6C
:105EA0007BF0F4CF7CF07B5173277C517423000E80
:105EB0007523000E76233E503902F3CF7BF0F4CFEA
:105EC0007CF07B5177277C517823000E7923000EDC
:105ED0007A233D503A02F3CF7BF0F4CF7CF07B5134
:105EE00077277C517823000E7923000E7A233E50C9
:105EF0003A02F3CF7BF0F4CF7CF07B516C6F7C5196
:105F00006D6F6E6B6F6B6EC06FF06DC06EF06CC0BE
:105F10006DF06C6B6C5177276D5178236E5179233E
:105F20006F517A2376517727000E782379237A23CD
:105F300075C076F074C075F073C074F0736B7151F6
:105F400072C06CF06D6B6C27000E6D23820E6C2599
:105F50007B6FFF0E6D217C6F0FD0D890773778372D
:105F600079377A3776BF7781D8907337743775373A
:105F700076377B07D8A07C0779AFEFD7000E716F1B
:105F800076AF17D0FF0E73156C6FFF0E74156D6F23
:105F9000FF0E75156E6F7F0E76156F6F6C516D115C
:105FA0006E116F11D8B403D0010E716F02D077B1AA
:105FB000FBD77151D8B41FD0010E7727000E78237C
:105FC00079237A237AA117D077C06CF078C06DF06E
:105FD00079C06EF07AC06FF06F356F336E336D330A
:105FE0006C336CC077F06DC078F06EC079F06FC024
:105FF0007AF07B4B7C2B7CBF0DD07C5103E17B295D
:10600000D8A008D0000E776F000E786F800E796FE1
:106010007F0E20D07CBF05D07C510EE17B05D8B02F
:106020000BD0000E776F000E786F000E796F000EA8
:106030007A6F000E706F0FD07BC072F0FF0E771773
:10604000FF0E78177F0E7917000E7A1772B1798FCD
:10605000D89072317A6F70517A1377C038F078C067
:1060600039F079C03AF07AC03BF01200000E00011E
:106070008D6F20EE82F00A0EDE6AE806FDE220EE69
:1060800060F01F0EDE6AE806FDE2000E906F000E63
:106090008F6F000E806F25C0D9FF26C0DAFFDF505A
:1060A000916F56D1410E9119D8B40CD0540E91195C
:1060B000D8B408D0610E9119D8B404D0740E9119D7
:1060C000D8A453D19051820FD96EDA6A91C0DFFF04
:1060D000902B010E906549D1410E8219D8B404D09D
:1060E000610E8219D8A40AD0540E8319D8B404D0F2
:1060F000740E8319D8A402D0010E68D0020E806FEE
:1061000034D1200E9119D8A405D0020E8D6F000E47
:106110008F6F2BD1080E906550D0410E8219D8B4E4
:1061200004D0610E8219D8A448D0540E8319D8B473
:1061300004D0740E8319D8A440D0430E8419D8B467
:1061400004D0630E8419D8A438D0530E8519D8B45E
:1061500004D0730E8519D8A430D04D0E8619D8B44A
:1061600004D06D0E8619D8A428D04F0E8719D8B444
:1061700004D06F0E8719D8A420D0440E8819D8B443
:1061800004D0640E8819D8A418D0450E8919D8B443
:1061900004D0650E8919D8A410D04C0E8A19D8B431
:1061A00004D06C0E8A19D8A408D0020E8D6F000E90
:1061B0008F6F91C060F08F2BD8D00D0E9119D8B48D
:1061C00004D00A0E9119D8A403D0030E8D6FCDD040
:1061D0000A0E906502D0000E906F9051820FD96E1A
:1061E000DA6A91C0DFFF902BC0D00D0E9119D8B4A0
:1061F000ECD70A0E9119D8B4E8D71F0E8F6502D0DC
:10620000000E8F6F8F51600FD96EDA6A91C0DFFF79
:10621000D2D7000E816F820E206E810E216E77EC38
:106220005FF000018E6F8EBF91D027C0D9FF28C0CC
:10623000DAFF81C0DFFF8E510D0D960EF324F66E4E
:10624000200EF420F76E20EE02F02750D9262850B9
:10625000DA220800F5CFDFFF8E510D0D0C0EF3266C
:10626000000EF422960EF324F66E200EF420F76E44
:1062700020EEAFF02750D9262850DA220800F5CFBB
:10628000DFFF030E27240F6E000E2820106E820EF3
:10629000116E126A4CEC63F044D020EE0EF02750E1
:1062A000D9262850DA22000E11D00F0E2724106EA6
:1062B000000E2820116E600E126E5BEC65F020EE71
:1062C0000EF02750D9262850DA22010EDF6E3CD07E
:1062D0000F0E2724106E000E2820116E600E126E15
:1062E0005BEC65F01050111018D0296A292A20EEB5
:1062F0000EF02750D9262850DA2229C0DFFF24D0FB
:106300000F0E27240F6E000E2820106E600E116EE7
:10631000126A4CEC63F00F501010D8A4E6D7296A2B
:10632000E6D720EEAFF02750D9262850DA22DF50EA
:10633000000AD8B4B2D7010AD8B4B7D7030AD8B480
:10634000C7D7010AD8B4DCD7010E1200020E120022
:106350008D51000AD8B4A6D6010AD8B4D2D6030A01
:10636000D8B443D7010AD8B454D79151D8B402D085
:10637000254A262A9151D8A48ED6805112002B503E
:10638000800B346E2B502B24366E2ABE368036504E
:10639000D8B40DD03628D8A408D0000E286E000E30
:1063A000296E000E2A6E000E2B6E2A8E06D0000E6D
:1063B000286E000E296E000E2A6E000E2B6E2F50D6
:1063C000800B356E34503518D8A4348C2F502F24C0
:1063D000356E2EBE35803550D8B40DD03528D8A4B2
:1063E00008D0000E2C6E000E2D6E000E2E6E000ECC
:1063F0002F6E2E8E06D0000E2C6E000E2D6E000E0F
:106400002E6E000E2F6E3650355CD8B022D034ACD4
:1064100002D0800E341A36C037F035C036F037C09F
:1064200035F028C037F02CC028F037C02CF029C038
:1064300037F02DC029F037C02DF02AC037F02EC01C
:106440002AF037C02EF02BC037F02FC02BF037C00A
:106450002FF0000E376E365035C030F0316A305EA6
:10646000000E315A31BE2CD0315004E11A0E305C8E
:10647000D8A026D0285029102A102B10D8B402D02A
:10648000010E01D0000E376E000E286E000E296E30
:10649000000E2A6E000E2B6E35C036F015D037A0D8
:1064A00005D0D89037300109376E02D0D8903732F6
:1064B00028B0378E2B342B322A3229322832362A12
:1064C0003550365CD8A0EBD734BC28D03650D8A491
:1064D00009D0000E286E000E296E000E2A6E000EE6
:1064E0002B6E12002C5028262D5029222E502A22A5
:1064F0002F502B222BA071D037A005D0D890373049
:106500000109376E02D0D890373228B0378E2B343D
:106510002B322A3229322832362A5FD02C50285C7E
:106520002D5029582E502A582B50800A306E2F504B
:10653000800A3058D8B025D028502C5C306E2950B5
:106540002D58316E2A502E58326E2B502F58336EE4
:10655000FF0E3024286EFF0E3120296EFF0E3220F0
:106560002A6EFF0E33202B6E800E341A376C375094
:10657000D8A40FD0010E2826000E29222A222B2271
:1065800008D02C50285E2D50295A2E502A5A2F50B0
:106590002B5A285029102A102B10D8A41CD0375061
:1065A000D8A419D0000E286E000E296E000E2A6E97
:1065B000000E2B6E1200D890283629362A362B363C
:1065C00037BE288037A002D0D88001D0D890373687
:1065D0003650D8A436062AAEEED7000E356E37AE4A
:1065E0000BD037C030F07F0E3016D8B403D0010E78
:1065F000356E02D028B0FBD73550D8B420D0010E6C
:106600002826000E29222A222B222BA018D028C0AF
:1066100030F029C031F02AC032F02BC033F03334CF
:10662000333232323132303230C028F031C029F0CA
:1066300032C02AF033C02BF03628D8A4362A3628A8
:10664000D8B403D03650D8A40DD0000E286E000E5A
:10665000296E000E2A6E000E2B6E3650D8A402D082
:10666000000E346E36A002D02A8E01D02A9ED89019
:1066700036302B6E34BE2B8E28C028F029C029F06E
:106680002AC02AF02BC02BF012001D501E10D8B4C7
:1066900008D01F502010D8B404D021502210D8A404
:1066A00002D0040E120020EE01F01F50D926205017
:1066B000DA22DE04D8B414D020EE01F01F50D9261F
:1066C0002050DA22020EDE18D8B40AD020EE23F0D1
:1066D0001D50D9261E50DA220A0EDF6E050E12005A
:1066E00020EE14F01D50D9261E50DA22DF50236E02
:1066F000246A20EE02F01F50D9262050DA22DF5003
:10670000256E266A050E2526000E26222350251802
:106710000DE124502618D8A47DD020EE0AF01D509B
:10672000D9261E50DA22080EDE18D8A473D020EE27
:1067300004F02150D9262250DA22DECF1BF0DDCF23
:106740001CF0E7EC6EF01BC029F01CC02AF01FC043
:10675000D9FF20C0DAFFDF50D8A408D020EE23F004
:106760001D50D9261E50DA22120EB7D721C0D9FFEC
:1067700022C0DAFF1FC0E1FF20C0E2FFDE50E618B2
:10678000D8B408D020EE23F01D50D9261E50DA22AE
:106790000D0EA3D720EE01F02150D9262250DA2287
:1067A00010EE01F01F50E1262050E222DE50E618E4
:1067B000D8B408D020EE23F01D50D9261E50DA227E
:1067C0000C0E8BD720EE02F01F50D9262050DA2273
:1067D000DF50D8B41FD020EE02F01F50D926205031
:1067E000DA22FB0EDF6016D029C00FF02AC010F0AD
:1067F000ADEC67F020EE02F01F50D9262050DA22CF
:10680000DF50236E246A0F50231804E1105024181F
:10681000D8B408D020EE23F01D50D9261E50DA221D
:10682000020E5BD729C00FF02AC010F0ADEC67F064
:10683000105004E1040E0F5CD8A002D0020E12002A
:106840001D0E1D24156E000E1E20166E000E186EF5
:10685000000E176E29C00FF02AC010F0ADEC67F0E3
:106860000FC019F010C01AF0D6EC6CF01D0E1D24EC
:106870000F6E000E1E20106E030E1F24116E000EF0
:106880002020126E20EE02F01F50D9262050DA226E
:10689000DF50236E2350136E146AA6EC68F020EECE
:1068A00001F01F50D9262050DA2210EE1CF01D50A6
:1068B000E1261E50E222DFCFE7FF1FC0D9FF20C034
:1068C000DAFF10EE15F01D50E1261E50E222DFCF58
:1068D000E7FF20EE01F01F50D9262050DA22DE0417
:1068E000D8B404D0000E286E080E03D0000E286E17
:1068F000040E276E20EE1BF01D50D9261E50DA2202
:1069000027C0DFFF20EE02F02150D9262250DA22E4
:10691000DECF1BF0DDCF1CF0E7EC6EF020EE16F0C2
:106920001D50D9261E50DA221BC0DEFF1CC0DDFF21
:1069300020EE18F01D50D9261E50DA2229C0DEFFA5
:106940002AC0DDFF20EE02F01F50D9262050DA22A7
:1069500010EE1AF01D50E1261E50E222DFCFE7FFB5
:1069600020EE23F01D50D9261E50DA22000EDF6ED5
:10697000000E1200000EA66F000EA76F000EA86F8B
:10698000000EA96FA505D8A460D19DC091F09EC04E
:1069900092F09FC093F0A0C094F0000E956F000E8F
:1069A000966FC80E976F410E986F31EC56F0D8A0D5
:1069B00039D09DC091F09EC092F09FC093F0A0C0CE
:1069C00094F0000E956F000E966FF00E976F410ECB
:1069D000986F31EC56F0D8B025D0960E3C6E430E31
:1069E0003D6E0B0E3E6E3D0E3F6E9DC038F09EC05C
:1069F00039F09FC03AF0A0C03BF09FEC2EF038C0B9
:106A000028F039C029F03AC02AF03BC02BF0BC0E68
:106A10002C6E740E2D6E530E2E6EBF0E2F6EBFECAD
:106A200031F0E6D09DC091F09EC092F09FC093F0EF
:106A3000A0C094F0000E956F000E966FF00E976F49
:106A4000410E986F31EC56F0D8A039D09DC091F02E
:106A50009EC092F09FC093F0A0C094F0000E956F7E
:106A6000000E966F080E976F420E986F31EC56F03D
:106A7000D8B025D0CD0E3C6ECC0E3D6E4C0E3E6E89
:106A80003D0E3F6E9DC038F09EC039F09FC03AF079
:106A9000A0C03BF09FEC2EF038C028F039C029F0A0
:106AA0003AC02AF03BC02BF0680E2C6E910E2D6E72
:106AB000AD0E2E6EBF0E2F6EBFEC31F099D09DC083
:106AC00091F09EC092F09FC093F0A0C094F0000E91
:106AD000956F000E966F080E976F420E986F31EC0F
:106AE00056F0D8A039D09DC091F09EC092F09FC0C2
:106AF00093F0A0C094F0000E956F000E966F180EE4
:106B0000976F420E986F31EC56F0D8B025D05C0EDE
:106B10003C6E8F0E3D6EC20E3E6E3D0E3F6E9DC0B2
:106B200038F09EC039F09FC03AF0A0C03BF09FEC17
:106B30002EF038C028F039C029F03AC02AF03BC006
:106B40002BF0870E2C6E160E2D6E390E2E6EC00E8B
:106B50002F6EBFEC31F04CD09DC091F09EC092F0F2
:106B60009FC093F0A0C094F0000E956F000E966F3A
:106B7000180E976F420E986F31EC56F0D8A041D0A6
:106B80009DC091F09EC092F09FC093F0A0C094F081
:106B9000000E956F000E966F240E976F420E986F41
:106BA00031EC56F0D8B02DD0CD0E3C6ECC0E3D6EF3
:106BB000CC0E3E6E3D0E3F6E9DC038F09EC039F04B
:106BC0009FC03AF0A0C03BF09FEC2EF038C028F0F8
:106BD00039C029F03AC02AF03BC02BF0660E2C6E6B
:106BE000660E2D6E460E2E6EC00E2F6EBFEC31F06F
:106BF00028C0A6F029C0A7F02AC0A8F02BC0A9F091
:106C000024D09DC091F09EC092F09FC093F0A0C090
:106C100094F0000E956F000E966F240E976F420E43
:106C2000986F31EC56F0D8A008D0000EA66F000E79
:106C3000A76F800EA86F3F0E07D0000EA66F000E44
:106C4000A76F000EA86F000EA96FA6C09DF0A7C089
:106C50009EF0A8C09FF0A9C0A0F01200000E336EF5
:106C60002B502C10D8A402D0040E120020EE20F0DD
:106C70002B50D9262C50DA22000EDF6E20EE21F0A8
:106C80002B50D9262C50DA22000EDF6E20EE22F097
:106C90002B50D9262C50DA22000EDF6E20EE1AF08F
:106CA0002B50D9262C50DA22000EDF6E20EE16F083
:106CB0002B50D9262C50DA22000EDE6E000EDD6E2F
:106CC00020EE18F02B50D9262C50DA22000EDE6E62
:106CD000000EDD6E20EE1BF02B50D9262C50DA2250
:106CE000000EDF6E20EE15F02B50D9262C50DA2244
:106CF000000EDF6E20EE1CF02B50D9262C50DA222D
:106D0000000EDF6E20EE14F02B50D9262C50DA2224
:106D1000030EDF641DD00B0E2B242D6E000E2C20D5
:106D20002E6E2D502E10D8B413D020EE0AF02B501A
:106D3000D9262C50DA22030EDF640AD0010E2B2450
:106D40002D6E000E2C202E6E2D502E10D8A40AD0A1
:106D500020EE23F02B50D9262C50DA22020EDF6EC3
:106D6000050E1200340E0F6E106A20EE14F02B5038
:106D7000D9262C50DA22DF502D6E2D502B242E6E6A
:106D8000000E2C202F6E090E2E24116E000E2F20C7
:106D9000126E000E146E020E136EA6EC68F0360E24
:106DA0000F6E106A20EE0AF02B50D9262C50DA22F2
:106DB000DF502D6E2D502B242E6E000E2C202F6EAA
:106DC000FF0E2E24116EFF0E2F20126E000E146E79
:106DD000020E136EA6EC68F00B0E2B240F6E000E45
:106DE0002C20106E20EE14F02B50D9262C50DA22D5
:106DF000DF502D6EFE0E2D24116E126AFF0E122230
:106E00002CEC62F034500F1821E135501018D8A442
:106E10001DD0010E2B240F6E000E2C20106E20EEC4
:106E20000AF02B50D9262C50DA22DF502D6EFE0EA0
:106E30002D24116E126AFF0E12222CEC62F03650D5
:106E40000F1804E137501018D8B408D020EE23F002
:106E50002B50D9262C50DA22010E81D70B0E2B2471
:106E6000386E000E2C20396E010E2B24316E000E70
:106E70002C20326E20EE23F02B50D9262C50DA2213
:106E8000000EDF6E010E306E20EE01F03850D92674
:106E90003950DA22DFAE37D020EE14F02B50D9264D
:106EA0002C50DA22050EDE18D8A42DD02BC00FF0FE
:106EB0002CC010F038C011F039C012F05EEC64F054
:106EC0001DD02BC01DF02CC01EF038C01FF039C0E3
:106ED00020F031C021F032C022F045EC33F00ED06A
:106EE0002BC01DF02CC01EF038C01FF039C020F0A0
:106EF00031C021F032C022F0A5EC41F0336E14D045
:106F0000000E306E11D020EE01F03850D9263950E5
:106F1000DA22DF50010AD8B4D4D7030AD8B4D1D7C3
:106F2000070AD8B4DDD7ECD73050D8A408D020EE6B
:106F300023F02B50D9262C50DA22090E10D73350CB
:106F4000120020EE04F07D51D9267E51DA22DECFE8
:106F50000FF0DECF10F0DECF11F0DECF12F07DC0EB
:106F6000D9FF7EC0DAFFDECF2CF0DECF2DF0DECFF2
:106F70002EF0DECF2FF020EE04F07D51D9267E5189
:106F8000DA22DECF28F0DECF29F0DECF2AF0DECF06
:106F90002BF0BFEC31F028C013F029C014F02AC048
:106FA00015F02BC016F0B0EC3BF0000120EE14F011
:106FB0007D51D9267E51DA220FC0DEFF10C0DEFFE0
:106FC00011C0DEFF12C0DEFF20EE14F07D51D92685
:106FD0007E51DA22DECF3CF0DECF3DF0DECF3EF058
:106FE000DECF3FF020EE10F07D51D9267E51DA221F
:106FF000DECF64F0DECF65F0DECF66F0DECF67F087
:107000007FC060F080C061F081C062F082C063F038
:107010001BEC68F060C038F061C039F062C03AF033
:1070200063C03BF09FEC2EF038C087F039C088F089
:107030003AC089F03BC08AF087C028F088C029F0A8
:1070400089C02AF08AC02BF020EE10F07D51D9269D
:107050007E51DA22DECF2CF0DECF2DF0DECF2EF007
:10706000DECF2FF0BFEC31F0000120EE0CF07D51AF
:10707000D9267E51DA2228C0DEFF29C0DEFF2AC0D1
:10708000DEFF2BC0DEFF20EE04F07D51D9267E51BD
:10709000DA22DECF3CF0DECF3DF0DECF3EF0DECFB9
:1070A0003FF020EE14F07D51D9267E51DA22DECF5A
:1070B00064F0DECF65F0DECF66F0DECF67F0000E65
:1070C000606F000E616F800E626F3F0E636F1BEC8E
:1070D00068F060C038F061C039F062C03AF063C057
:1070E0003BF09FEC2EF038C087F039C088F03AC0F2
:1070F00089F03BC08AF020EE08F07D51D9267E5100
:10710000DA22DECF3CF0DECF3DF0DECF3EF0DECF48
:107110003FF020EE0CF07D51D9267E51DA22DECFF1
:1071200064F0DECF65F0DECF66F0DECF67F020EEF4
:1071300010F07D51D9267E51DA22DECF60F0DECF0D
:1071400061F0DECF62F0DECF63F01BEC68F060C070
:1071500068F061C069F062C06AF063C06BF0EBEC8C
:1071600069F068C038F069C039F06AC03AF06BC0A5
:107170003BF09FEC2EF038C083F039C084F03AC069
:1071800085F03BC086F087C028F088C029F089C010
:107190002AF08AC02BF083C02CF084C02DF085C06B
:1071A0002EF086C02FF0BFEC31F0000120EE04F08D
:1071B0007D51D9267E51DA2228C0DEFF29C0DEFFAC
:1071C0002AC0DEFF2BC0DEFF20EE0CF07D51D92659
:1071D0007E51DA2210EE10F07D51E1267E51E2223E
:1071E000DECFE6FFDECFE6FFDECFE6FFDECFE6FF57
:1071F00020EE0CF07D51D9267E51DA22DECF7DF0D3
:10720000DECF7EF0DECF7FF0DECF80F01200000E0A
:107210006A6F60516111D8A402D0040E120020EEF2
:1072200032F06051D9266151DA22000EDF6E20EE75
:1072300016F06051D9266151DA22000EDF6E20EE81
:107240003CF06051D9266151DA22030EDF640AD086
:10725000330E6025626F000E6121636F625163110E
:10726000D8A40AD020EE16F06051D9266151DA2256
:10727000020EDF6E050E1200660E0F6E106A20EE13
:107280003CF06051D9266151DA22DF50626F6251C1
:107290006025636F000E6121646F310E6325116EEE
:1072A000000E6421126E000E146E020E136EA6EC18
:1072B00068F0330E000160250F6E000E6121106E24
:1072C00020EE3CF06051D9266151DA22DF50626F26
:1072D000FE0E6225116E126AFF0E12222CEC62F075
:1072E000000166510F1804E167511018D8B408D096
:1072F00020EE16F06051D9266151DA22010EB9D77D
:10730000330E60256D6F000E61216E6F60C0D9FF76
:1073100061C0DAFF6DC0E1FF6EC0E2FFDE50E6182B
:10732000D8B409D06DC0D9FF6EC0DAFFDF50D8B431
:1073300002D0000E1200000E686F000E696F20EE82
:1073400017F06051D9266151DA22DE50DE10D8B430
:1073500064D0000E6C6F000E6B6F53D020EE01F006
:107360006D51D9266E51DA226BC00FF06CC010F04F
:10737000000E126E030E116ECCEC6DF0000110EEDB
:1073800017F06051E1266151E222E6CF63F0E5CFCC
:1073900064F00F506325E16E10506421E26EDE5000
:1073A000E618D8A42CD0010E686F6BC00FF06CC02B
:1073B00010F0000E126E030E116ECCEC6DF0000199
:1073C00020EE17F06051D9266151DA22DECF62F04B
:1073D000DDCF63F00F50622710506323010E62254A
:1073E000D96E000E6321DA6EDE50DE10D8B404D000
:1073F000000E6A6F010E01D0000E696F0ED06B4B4C
:107400006C2B20EE19F06051D9266151DA22DE5042
:107410006B5DDE506C59D8A0A1D76851D8A423D099
:10742000010E696F12D060C027F061C028F06DC0F6
:1074300029F06EC02AF09AEC28F000016A6F13D090
:10744000000E6A6F000E696F0ED020EE01F06D51D4
:10745000D9266E51DA22DF50030AD8B4E4D7070ADE
:10746000D8B4E1D7EDD76951D8A42AD06851D8B49F
:1074700013D060C021F061C022F020EE01F06D5108
:10748000D9266E51DA22DF50236E010E246E0B0EC8
:10749000256E6CEC69F012D060C021F061C022F062
:1074A00020EE01F06D51D9266E51DA22DF50236EA5
:1074B000010E246E090E256E6CEC69F000016A6FF6
:1074C0006A5112000001C16F0001C1513E0D7E0ED4
:1074D000F324D96E010EF420DA6EDECFC2F0DECFD7
:1074E000C3F0DECFC4F0DECFC5F0C1513E0D7A0E41
:1074F000F324D96E010EF420DA6EDECFC6F0DECFB3
:10750000C7F0DECFC8F0DECFC9F0C1513E0D820E0C
:10751000F324D96E010EF420DA6EDECFB9F0DECF9F
:10752000BAF0DECFBBF0DECFBCF0C6C064F0C7C09F
:1075300065F0C8C066F0C9C067F0C2C060F0C3C0E3
:1075400061F0C4C062F0C5C063F01BEC68F060C0BD
:1075500091F061C092F062C093F063C094F0000EAD
:107560000001956F000E966F000E976F000E986FDA
:1075700032EC5FF0D8B014D0C6C091F0C7C092F022
:10758000C8C093F0C9C094F0C2C095F0C3C096F0D3
:10759000C4C097F0C5C098F031EC56F0D8A009D01F
:1075A000000EA56F000EA66F000EA76F000EA86F4D
:1075B0001200C6C064F0C7C065F0C8C066F0C9C09C
:1075C00067F0C2C060F0C3C061F0C4C062F0C5C063
:1075D00063F01BEC68F060C013F061C014F062C08F
:1075E00015F063C016F0C6C03CF0C7C03DF0C8C07F
:1075F0003EF0C9C03FF0B9C038F0BAC039F0BBC0E6
:107600003AF0BCC03BF09FEC2EF038C00FF039C010
:1076100010F03AC011F03BC012F0B0EC3BF00FC0DC
:10762000ADF010C0AEF011C0AFF012C0B0F0C6C0E7
:1076300064F0C7C065F0C8C066F0C9C067F0C2C0DA
:1076400060F0C3C061F0C4C062F0C5C063F01BEC61
:1076500068F060C013F061C014F062C015F063C040
:1076600016F0A9C03CF0AAC03DF0ABC03EF0ACC0E3
:107670003FF0B9C038F0BAC039F0BBC03AF0BCC076
:107680003BF09FEC2EF038C00FF039C010F03AC03C
:1076900011F03BC012F0B0EC3BF00FC0B1F010C0E5
:1076A000B2F011C0B3F012C0B4F0ADC064F0AEC01F
:1076B00065F0AFC066F0B0C067F0B1C060F0B2C0B6
:1076C00061F0B3C062F0B4C063F01BEC68F060C05E
:1076D000B5F061C0B6F062C0B7F063C0B8F0B5C035
:1076E00060F0B6C061F0B7C062F0B8C063F0A5C08A
:1076F00064F0A6C065F0A7C066F0A8C067F01BECF8
:1077000068F060C0BDF061C0BEF062C0BFF063C091
:10771000C0F00001C1513E0D760EF324D96E010E6A
:10772000F420DA6EDE04D8A412D0BDC09DF0BEC035
:107730009EF0BFC09FF0C0C0A0F088EC40F09DC09C
:10774000BDF09EC0BEF09FC0BFF0A0C0C0F0BDC0E5
:10775000A5F0BEC0A6F0BFC0A7F0C0C0A8F0120040
:107760001250800B1F6E12501224266E11BE2680FE
:107770002650D8B40DD02628D8A408D0000E0F6EFD
:10778000000E106E000E116E000E126E118E06D0DD
:10779000000E0F6E000E106E000E116E000E126EB7
:1077A0001650800B1F1A16501624276E15BE278000
:1077B0002750D8B40DD02728D8A408D0000E136EB7
:1077C000000E146E000E156E000E166E158E06D08D
:1077D000000E136E000E146E000E156E000E166E67
:1077E0001350141015101610D8A417D0000E0F6ED9
:1077F000000E106E000E116E000E126E800E111231
:107800007F0E12121F5012120FC00FF010C010F096
:1078100011C011F012C012F012002650D8A409D0E5
:10782000000E0F6E000E106E000E116E000E126E26
:107830001200275026C017F0186A175E000E185A5B
:107840007F0E1724206E000E1820216E0FC01BF033
:1078500010C01CF011C01DF012C01EF0000E0F6E03
:10786000000E106E000E116E000E126E000E226ED3
:10787000000E236E000E246E000E256E000E276E85
:1078800028D02750D8B411D0D8901B361C361D36BE
:107890001E36D8900F3610361136123625BE0F80A0
:1078A000D890223623362436253613501B5C1450CC
:1078B0001C5815501D5816501E58D8A009D0258C9C
:1078C00013501B5E14501C5A15501D5A16501E5A48
:1078D000272A190E2764D5D71B501C101D101E1007
:1078E000D8B411D022800FD0D8900F361036113670
:1078F000123625BE0F80D890223623362436253600
:107900002006D8A0210611AEEFD7000E276E25AEB7
:1079100017D0FF0E2214176EFF0E2314186EFF0EE1
:107920002414196E7F0E25141A6E17501810191092
:107930001A10D8B403D0010E276E02D00FB0FBD7B7
:107940002750D8B41FD0010E0F26000E102211228E
:10795000122212A017D00FC017F010C018F011C0DB
:1079600019F012C01AF01A341A32193218321732BA
:1079700017C00FF018C010F019C011F01AC012F0A3
:10798000204A212A21BE10D0215003E12028D8A06E
:107990000BD0000E216E2068000E0F6E000E106ED0
:1079A000000E116E000E126E21BE05D0215011E1A5
:1079B0002004D8B00ED0000E216E000E206E000EF6
:1079C0000F6E000E106E000E116E000E126E000E85
:1079D0001F6E20C026F026A002D0118E01D0119E6D
:1079E000D8902630126E0ED7896F6D0E0001896512
:1079F000A0D0000E3C6E000E3D6E000E3E6E3F0E9F
:107A00003F6E640E136E895182EC6AF0406E416ADB
:107A1000D89040364136D89040364136480E402600
:107A2000000E41223D0E4024F66E200E4120F76EDE
:107A30000900F5CF38F00900F5CF39F00900F5CF8E
:107A40003AF00A00F5CF3BF09FEC2EF038C085F0FD
:107A500039C086F03AC087F03BC088F00A0E136E3A
:107A6000640E0F6E895156EC6DF082EC6AF0406E38
